:100000000C9466000C9442090C946F090C948E00B9
:100010000C948E000C948E000C948E000C94E608C8
:100020000C948E000C948E000C948E000C948E0018
:100030000C948E000C948E000C948E000C948E0008
:100040000C940C0B0C948E000C9499060C94CB061B
:100050000C948E000C948E000C948E000C948E00E8
:100060000C948E000C948E00020000000800020127
:10007000000003040700000000000000000102046B
:10008000081020408001020408102001020408101A
:100090002004040404040404040202020202020311
:1000A00003030303030000000023002600290000CF
:1000B000000000250028002B00000000002400277D
:1000C000002A00007F02FB067807850211241FBE6C
:1000D000CFEFD8E0DEBFCDBF11E0A0E0B1E0E2EDB0
:1000E000FFE102C005900D92AA3EB107D9F722E0C8
:1000F000AAEEB1E001C01D92AA3CB207E1F710E000
:10010000CAECD0E004C02297FE010E94710DC43CED
:10011000D107C9F70E94FD0A0C94DC0F0C94000073
:100120008F929F92AF92BF92CF92DF92EF92FF9207
:100130000F931F93CF93DF93FC0110920A0120913C
:100140000B0130910C0180910D0190910E01B901CC
:100150000E94250DEB01E130F10569F580911D014B
:1001600090911E01B9010E94250D5B0161E087E0BD
:100170000E94C60C60E086E00E94C60C00E010E021
:10018000812C912C6E01EE24D7FCE094FE2CB8015A
:1001900085E00E94050C0A0D1B1DC701B6010E94D7
:1001A000850B8C0E9D1E80910D0190910E0188167D
:1001B00099066CF32EC0EF2B61F580911F01909191
:1001C0002001B9010E94250D5B0160E087E00E94DB
:1001D000C60C61E086E00E94C60C00E010E0812CB5
:1001E000912C6E01EE24D7FCE094FE2CB80185E042
:1001F0000E94050C0A0D1B1DC701B6010E94850B4C
:100200008C0E9D1E80910D0190910E01881699060D
:100210006CF3DF91CF911F910F91FF90EF90DF90E2
:10022000CF90BF90AF909F908F9008958F929F92A4
:10023000AF92BF92CF92DF92EF92FF920F931F93F4
:10024000CF93DF938C01EB010E94560BC090F90114
:10025000D090FA01E090FB01F090FC014B015C01B1
:100260008C189D08AE08BF08C0901901D0901A01E3
:10027000EE24D7FCE094FE2CC814D904EA04FB0455
:1002800090F56093F9017093FA018093FB019093CC
:10029000FC0163E271E08FE092E00E94D307B801B5
:1002A0008FE092E00E94C50766E971E08FE092E07E
:1002B0000E94D3074AE050E0BE018FE092E00E9426
:1002C000950860E371E08FE092E0DF91CF911F919C
:1002D0000F91FF90EF90DF90CF90BF90AF909F90E5
:1002E0008F900C94E007DF91CF911F910F91FF90B9
:1002F000EF90DF90CF90BF90AF909F908F90089538
:1003000060E070E085E00E94050C60E087E00E94FC
:10031000C60C60E086E00E94C60C60E08DE00E94A2
:10032000C60C81E090E09093F8018093F701109261
:10033000040210920302089561E084E00E94C60C5A
:1003400061E082E00E94C60C81E090E0909306029A
:1003500080930502089560E084E00E94C60C60E08E
:1003600082E00E94C60C10920602109205020895C7
:10037000CF92DF92EF92FF920F931F930E94560B42
:100380000091FD011091FE012091FF0130910002CA
:100390006B017C01C01AD10AE20AF30A00911B0129
:1003A00010911C01222717FD2095322F0C151D05D9
:1003B0002E053F0520F56093FD017093FE018093AB
:1003C000FF01909300028091010290910202892B1B
:1003D00039F481E090E0909302028093010204C01E
:1003E0001092020210920102609101028DE01F91B1
:1003F0000F91FF90EF90DF90CF900C94C60C1F915F
:100400000F91FF90EF90DF90CF90089581E080935F
:100410000A010E94560B6093F3017093F4018093DC
:10042000F5019093F6010895CF92DF92EF92FF923B
:100430000F931F930E94560B20910A01222319F15A
:100440000091F3011091F4012091F5013091F60132
:100450006B017C01C01AD10AE20AF30A80911501EE
:1004600090911601A0911701B09118018C159D056E
:10047000AE05BF0540F41F910F91FF90EF90DF9004
:10048000CF900C94AB011F910F91FF90EF90DF90F4
:10049000CF90089560E08CE00E948D0C61E08DE0CB
:1004A0000E948D0C61E087E00E948D0C61E086E087
:1004B0000E948D0C60E089E00E948D0C60E08AE073
:1004C0000E948D0C62E083E00E948D0C61E084E06C
:1004D0000E948D0C61E082E00E948D0C60E084E05F
:1004E0000E94C60C60E082E00E94C60C26E040E854
:1004F00055E260E070E08FE092E00C9437066AED20
:1005000071E08CEE91E00C940A0A8CEE91E00C9470
:100510009C091F93CF93DF9300D000D000D0CDB7BC
:10052000DEB711E08FE092E00E945405181619061C
:10053000ECF58FE092E00E9454051816190694F726
:100540008FE092E00E946D058D3719F41093F2014F
:100550000EC08B3739F46AED71E08CEE91E00E94A9
:10056000400A05C0682F8CEE91E00E94840A8091B9
:10057000F2018823B9F26CEE71E0CE0101960E947F
:10058000370ACE0101960E942C04CE0101960E94EA
:100590009C098FE092E00E94B0056AED71E08CEE5C
:1005A00091E00E94400A1092F201BCCF26960FB64D
:1005B000F894DEBF0FBECDBFDF91CF911F9108959C
:1005C0000F931F93CF93DF9300D000D000D0CDB70F
:1005D000DEB78091050290910602892B61F40E949A
:1005E0009C016091130170911401882777FD80951B
:1005F000982F0E94850B80910B0290910C02892B01
:10060000E9F480E090E00E94900060911F017091F9
:10061000200185E00E94050C60E087E00E94C60C86
:1006200061E086E00E94C60C81E090E090930E02AB
:1006300080930D021092F8011092F7016AE070E0C9
:1006400080E090E00E94850B8EE00E94E80B909382
:1006500004028093030283E00E94FC0C9093EB0160
:100660008093EA01409103025091040220910F010E
:10067000309110012417350714F0892B11F40E94D2
:100680008001009103021091040263E471E0CE0145
:1006900001960E940A0AB801CE0101960E94160135
:1006A000CE0101960E949C090E9489020E94B80115
:1006B0008091F7019091F8018130910599F0209196
:1006C0000B0230910C02232B09F4B8CF892B51F483
:1006D0000E94800160E08DE00E94C60C10920E0224
:1006E00010920D020E94060226960FB6F894DEBF05
:1006F0000FBECDBFDF91CF911F910F910895EF9263
:10070000FF920F931F93CF93DF9300D000D000D0C0
:10071000CDB7DEB78091050290910602892B61F476
:100720000E949C016091130170911401882777FD4C
:100730008095982F0E94850B8CE00E94FC0C892BE1
:10074000E9F481E090E00E94900060911D017091B9
:100750001E0185E00E94050C61E087E00E94C60C46
:1007600060E086E00E94C60C81E090E090930E026B
:1007700080930D021092F8011092F7010FEF13E031
:1007800062E370E080E090E00E94850B8EE00E94C2
:10079000E80B9801281B390B3093040220930302C5
:1007A00083E00E94FC0C9093EB018093EA0140915E
:1007B000030250910402209111013091120124177B
:1007C000350714F0892B11F40E948001E090030298
:1007D000F090040263E471E0CE0101960E940A0ADF
:1007E000B701CE0101960E941601CE0101960E942A
:1007F0009C090E9489020E94B8018091F7019091A2
:10080000F801019799F48091F7019091F801892BF3
:10081000A1F40E94800160E08DE00E94C60C82E09D
:1008200090E090930E0280930D0207C08CE00E942E
:10083000FC0C892B09F4A4CFE6CF0E940602269671
:100840000FB6F894DEBF0FBECDBFDF91CF911F91E1
:100850000F91FF90EF9008950F931F93CF93DF9325
:10086000CDB7DEB762970FB6F894DEBF0FBECDBF2F
:100870008C0121E030E040E050E0BC01CE010D965B
:100880000E94B60A25E030E042E050E0B801CE0117
:1008900007960E94B60A2AE030E046E050E0B80130
:1008A000CE0101960E94B60A6BE471E0CE010D966E
:1008B0000E94970A882349F16DE471E0CE01079602
:1008C0000E94970A882319F00E94E002BBC061E5EC
:1008D00071E0CE0107960E94970A882319F00E94C2
:1008E0007F03B0C065E571E0CE0107960E94970ACC
:1008F000882309F4A7C080910D0290910E02019700
:1009000009F0A0C00E9480019DC069E571E0CE01A0
:100910000D960E94970A882309F445C06BE571E0A3
:10092000CE0107960E94970A882349F089819A810F
:100930000E94660F90931E0180931D0183C06FE596
:1009400071E0CE0107960E94970A882349F08981B9
:100950009A810E94660F9093200180931F0172C0BC
:1009600063E671E0CE0107960E94970A882349F05A
:1009700089819A810E94660F9093120180931101E0
:1009800061C067E671E0CE0107960E94970A88234E
:1009900009F458C089819A810E94660F90931001D2
:1009A00080930F014FC06BE671E0CE010D960E945F
:1009B000970A882309F446C06DE671E08FE092E063
:1009C0000E94D30760911D0170911E014AE050E022
:1009D0008FE092E00E9495086AE871E08FE092E073
:1009E0000E94D30760911F01709120014AE050E0FE
:1009F0008FE092E00E9495086AE971E08FE092E052
:100A00000E94D30760911101709112014AE050E0F9
:100A10008FE092E00E9495086DEA71E08FE092E02D
:100A20000E94D30760910F01709110014AE050E0DD
:100A30008FE092E00E94950860E371E08FE092E021
:100A40000E94E007CE0101960E949C09CE01079604
:100A50000E949C09CE010D960E949C0962960FB6D9
:100A6000F894DEBF0FBECDBFDF91CF911F910F91E4
:100A700008950E9489020E94140289E00E94FC0CE1
:100A800090930A0280930902019711F40E947F0358
:100A90008AE00E94FC0C9093080280930702019761
:100AA00011F40C94E0020895FC01818D228D90E0F8
:100AB000805C9F4F821B91098F7399270895FC01D9
:100AC000918D828D981731F0828DE80FF11D858D03
:100AD00090E008958FEF9FEF0895FC01918D828D36
:100AE000981761F0828DDF01A80FB11D5D968C9182
:100AF000928D9F5F9F73928F90E008958FEF9FEF8D
:100B0000089581EF96E0892B49F080E090E0892BF1
:100B100029F00E94F10681110C9400000895FC0157
:100B2000848DDF01A80FB11DA35ABF4F2C91848D76
:100B300090E001968F739927848FA689B7892C93AB
:100B4000A089B1898C9180648C93938D848D981346
:100B500006C00288F389E02D80818F7D808308950F
:100B6000CF93DF93EC01888D8823C9F0EA89FB8954
:100B7000808185FD05C0A889B9898C9186FD0FC04B
:100B80000FB607FCF5CF808185FFF2CFA889B98920
:100B90008C9185FFEDCFCE010E948F05E7CFDF91CD
:100BA000CF910895CF92DF92FF920F931F93CF932F
:100BB000DF931F92CDB7DEB76C0181E0D601589666
:100BC0008C9358975B969C915B975C968C915C9705
:100BD000981307C05096ED91FC915197808185FD47
:100BE0002EC0F601038D10E00F5F1F4F0F7311270A
:100BF000F02EF601848DF81211C00FB607FCF9CF64
:100C0000D6015096ED91FC915197808185FFF1CFEF
:100C1000C60169830E948F056981EBCF838DE80F40
:100C2000F11DE35AFF4F6083D6015B960C935B97EF
:100C30005296ED91FC915397808180620CC0D60151
:100C40005696ED91FC91579760835096ED91FC91EB
:100C5000519780818064808381E090E00F90DF91E4
:100C6000CF911F910F91FF90DF90CF900895BF9289
:100C7000CF92DF92EF92FF92CF93DF93EC016A0164
:100C80007B01B22EE889F98982E08083411581EEEB
:100C9000580761057105A1F060E079E08DE390E00F
:100CA000A70196010E94390D2150310941095109CE
:100CB0005695479537952795211580E1380798F087
:100CC000E889F989108260E874E88EE190E0A70174
:100CD00096010E94390D215031094109510956955B
:100CE000479537952795EC85FD853083EE85FF8503
:100CF0002083188EEC89FD89B082EA89FB89808186
:100D000080618083EA89FB89808188608083EA89A9
:100D1000FB89808180688083EA89FB8980818F7D5F
:100D20008083DF91CF91FF90EF90DF90CF90BF90C5
:100D300008951F920F920FB60F9211242F938F9345
:100D40009F93EF93FF93E0911F02F0912002808127
:100D5000E0912502F091260282FD12C090818091DF
:100D600028028F5F8F7320912902821751F0E09142
:100D70002802F0E0E15FFD4F958F8093280201C0CB
:100D80008081FF91EF919F918F912F910F900FBED6
:100D90000F901F9018951F920F920FB60F9211246B
:100DA0002F933F934F935F936F937F938F939F9373
:100DB000AF93BF93EF93FF938FE092E00E948F0574
:100DC000FF91EF91BF91AF919F918F917F916F9123
:100DD0005F914F913F912F910F900FBE0F901F90F9
:100DE00018958FE092E00E94540521E0892B09F4C8
:100DF00020E0822F0895109212021092110288EEC4
:100E000093E0A0E0B0E08093130290931402A093CB
:100E10001502B093160286EC91E090931002809335
:100E20000F0285EC90E090931C0280931B0284ECEF
:100E300090E090931E0280931D0280EC90E09093CE
:100E4000200280931F0281EC90E090932202809315
:100E5000210282EC90E0909324028093230286EC9E
:100E600090E090932602809325021092280210921F
:100E7000290210922A0210922B020895AF92BF927B
:100E8000CF92DF92EF92FF920F931F93CF93DF9356
:100E90006C017B01C0E0D0E000E010E0F601EC0F57
:100EA000FD1F4AE050E06281C7010E94AA085C0170
:100EB0006EE2C7010E94D5078A0D9B1D080F191FFE
:100EC0002196C330D10551F74AE050E0F601658123
:100ED000C7010E94AA08800F911FDF91CF911F9137
:100EE0000F91FF90EF90DF90CF90BF90AF9008955B
:100EF00086ED91E09093AD028093AC021092AE0229
:100F00001092AF021092B0021092B1020895CF92E7
:100F1000DF92EF92FF920F931F93CF93DF936C01B9
:100F20007A01EB01E60EF71E00E010E0CE15DF05BA
:100F300061F06991D601ED91FC910190F081E02D75
:100F4000C6010995080F191FF1CFC801DF91CF9194
:100F50001F910F91FF90EF90DF90CF900895611552
:100F6000710581F0DB010D900020E9F7AD014150E2
:100F70005109461B570BDC01ED91FC910280F38176
:100F8000E02D099480E090E00895DC01ED91FC9162
:100F9000DB0114964D915C9115976D917C910280C7
:100FA000F381E02D09940C94AF07DC01ED91FC91E5
:100FB0000190F081E02D099468ED71E00C94AF0789
:100FC0000F931F93CF93DF93EC010E94AF078C0127
:100FD000CE010E94DC07800F911FDF91CF911F91FE
:100FE0000F9108958F929F92AF92BF92CF92DF920E
:100FF000EF92FF920F931F93CF93DF93CDB7DEB79E
:10100000A1970FB6F894DEBF0FBECDBF7C01C42EF2
:10101000E52FCB01D22E19A221E02D1510F02AE0E8
:10102000D22E8E010F5D1F4F8D2C912CA12CB12C37
:101030006C2D7E2FA50194010E94390D8C2DD29E1E
:1010400080191124015011098A3014F4805D01C007
:10105000895CF8018083211531054105510521F096
:10106000C22EE32FCA01E4CFB801C7010E94AF0727
:10107000A1960FB6F894DEBF0FBECDBFDF91CF9122
:101080001F910F91FF90EF90DF90CF90BF90AF90A6
:101090009F908F900895CF92DF92EF92FF920F93DF
:1010A0001F93CF93DF93EC016A017B01211531057A
:1010B00079F4E881F9810190F081E02D642FDF91CE
:1010C000CF911F910F91FF90EF90DF90CF900994F7
:1010D0002A303105E9F477FF1AC06DE20E94D50786
:1010E0008C0144275527BA014C195D096E097F0907
:1010F0002AE0CE010E94F207800F911FDF91CF916D
:101100001F910F91FF90EF90DF90CF9008952AE00C
:10111000B701A601CE01DF91CF911F910F91FF90F2
:10112000EF90DF90CF900C94F2079A01AB01662705
:1011300057FD6095762F0C944B082115310541F42D
:10114000DC01ED91FC910190F081E02D642F099478
:101150000C94F2079A01462F50E060E070E00C9486
:101160009D08813039F018F0823051F008951092C6
:101170006E00089580916F008D7F80936F000895B9
:10118000809170008D7F8093700081E08093B0002B
:101190008091B100887F84608093B1001092B30089
:1011A0000895CF93C82F809121018C1307C0E8E6E2
:1011B000F0E084919FEF9093210101C08FEF0E9496
:1011C000B10860E08C2FCF910C94C60C1F920F9247
:1011D0000FB60F9211242F933F934F935F936F930A
:1011E0007F938F939F93AF93BF93EF93FF938091E0
:1011F000B5029091B602A091B702B091B802892BC6
:101200008A2B8B2B51F19091B202E091B302F091B5
:10121000B4028081892780838091B5029091B602C3
:10122000A091B702B091B802181619061A061B064B
:10123000C4F48091B5029091B602A091B702B0912A
:10124000B8020197A109B1098093B5029093B60243
:10125000A093B702B093B80204C0809121010E940C
:10126000D108FF91EF91BF91AF919F918F917F91A5
:101270006F915F914F913F912F910F900FBE0F9003
:101280001F9018951F920F920FB60F9211242F9353
:101290003F934F935F936F937F938F939F93AF93FE
:1012A000BF93EF93FF938091B9029091BA02892B7B
:1012B00029F0E091B902F091BA020995FF91EF91FE
:1012C000BF91AF919F918F917F916F915F914F915E
:1012D0003F912F910F900FBE0F901F9018951F9266
:1012E0000F920FB60F9211242F933F934F935F935A
:1012F0006F937F938F939F93AF93BF93EF93FF93DE
:101300008091BB029091BC02892B29F0E091BB0235
:10131000F091BC020995FF91EF91BF91AF919F9120
:101320008F917F916F915F914F913F912F910F908E
:101330000FBE0F901F901895FC01808191810C9435
:101340000D0ECF93DF93EC0188819981009711F006
:101350000E940D0E198218821D821C821B821A8225
:10136000DF91CF9108950F931F93CF93DF93EC01FB
:101370008B016F5F7F4F888199810E949C0E00973F
:1013800031F0998388831B830A8381E001C080E068
:10139000DF91CF911F910F910895CF93DF93EC01CF
:1013A00088819981892B29F08A819B8186179707EB
:1013B00060F4CE010E94B309882341F08C819D81A5
:1013C000892B19F4E881F981108281E0DF91CF91B6
:1013D0000895EF92FF920F931F93CF93DF93EC0149
:1013E0007B018A01BA010E94CD09811104C0CE019E
:1013F0000E94A10907C01D830C83B70188819981D0
:101400000E94960FCE01DF91CF911F910F91FF9017
:10141000EF900895FC0111821082138212821582CE
:1014200014826115710559F0FB0101900020E9F764
:10143000AF0141505109461B570B0C94E90908951F
:10144000CF93DF93EC01FB018617970761F0608172
:1014500071816115710529F0448155810E94E90966
:1014600002C00E94A109CE01DF91CF910895FC0135
:101470001182108213821282158214820C94200A27
:10148000CF93DF93EC016115710561F0FB010190D1
:101490000020E9F7AF0141505109461B570B0E944C
:1014A000E90902C00E94A109CE01DF91CF91089500
:1014B000EF92FF920F931F93CF93DF93EC017B0189
:1014C0000C811D816115710511F480E016C0411574
:1014D000510591F0040F151FB8010E94CD09882312
:1014E000A1F3288139818C819D81B701820F931FDF
:1014F0000E94960F1D830C8381E0DF91CF911F9195
:101500000F91FF90EF900895CF93DF9300D0CDB768
:10151000DEB769831A8241E050E0BE016F5F7F4F02
:101520000E94580A0F900F90DF91CF910895FC010F
:1015300024813581232B31F421E061157105A1F05F
:10154000FB0108C0FC01808191816115710531F4B6
:1015500021E0FC018081882339F005C00E948D0FB5
:1015600021E0892B09F020E0822F0895BF92CF92CD
:10157000DF92EF92FF920F931F93CF93DF936C0153
:101580007B01EA0189012417350720F48D2FE90139
:10159000042F182F6AED71E0C6010E940A0AD701D4
:1015A00014968D919C911597C817D907C8F4801788
:1015B000910708F48C01D701ED91FC911197E00F90
:1015C000F11FB08010826D917C916C0F7D1FC60160
:1015D0000E94400AD701ED91FC91E00FF11FB0820B
:1015E000C601DF91CF911F910F91FF90EF90DF9097
:1015F000CF90BF900895089508950E94AD0B0E946A
:10160000FC0A0E944A02C1E8D5E00E9439052097F1
:10161000E1F30E948105F9CF1F920F920FB60F924E
:1016200011242F933F938F939F93AF93BF938091F8
:10163000BE029091BF02A091C002B091C102309150
:10164000BD0223E0230F2D3720F40196A11DB11D0B
:1016500005C026E8230F0296A11DB11D2093BD02EF
:101660008093BE029093BF02A093C002B093C102C8
:101670008091C2029091C302A091C402B091C502B0
:101680000196A11DB11D8093C2029093C302A09345
:10169000C402B093C502BF91AF919F918F913F91CA
:1016A0002F910F900FBE0F901F9018952FB7F894A1
:1016B0006091BE027091BF028091C0029091C10200
:1016C0002FBF08953FB7F8948091C2029091C30252
:1016D000A091C402B091C50226B5A89B05C02F3FBA
:1016E00019F00196A11DB11D3FBF6627782F892FE4
:1016F0009A2F620F711D811D911D42E0660F771FA9
:10170000881F991F4A95D1F70895CF92DF92EF92E3
:10171000FF92CF93DF936B017C010E94620BEB0180
:10172000C114D104E104F10489F00E94FB0A0E9473
:10173000620B6C1B7D0B683E734090F381E0C81A0E
:10174000D108E108F108C851DC4FEACFDF91CF9111
:10175000FF90EF90DF90CF900895789484B58260E9
:1017600084BD84B5816084BD85B5826085BD85B545
:10177000816085BDEEE6F0E0808181608083E1E8F4
:10178000F0E010828081826080838081816080832C
:10179000E0E8F0E0808181608083E1EBF0E080812F
:1017A00084608083E0EBF0E0808181608083EAE701
:1017B000F0E080818460808380818260808380818A
:1017C000816080838081806880831092C100089549
:1017D0008E3008F08E5087702091220190E4299F6E
:1017E00090011124822B80937C0080917A00806488
:1017F00080937A0080917A0086FDFCCF80917800FA
:101800002091790090E0922B08951F93CF93DF935E
:10181000182FEB0161E00E948D0C209711F460E01D
:1018200004C0CF3FD10539F461E0812FDF91CF9122
:101830001F910C94C60CE12FF0E0E759FF4FE491A3
:10184000E330F9F048F4E130B9F0E230A1F584B5C5
:10185000806284BDC8BD34C0E730E9F0E83019F1DA
:10186000E43049F580918000806280938000D093BD
:101870008B00C0938A0024C084B5806884BDC7BD36
:101880001FC080918000806880938000D093890081
:10189000C093880015C08091B00080688093B0002C
:1018A000C093B3000DC08091B00080628093B000FF
:1018B000C093B40005C0C038D1050CF0B5CFAFCF90
:1018C000DF91CF911F910895833081F028F481300A
:1018D00099F08230A1F008958730A9F08830B9F0EE
:1018E0008430D1F4809180008F7D03C0809180008E
:1018F0008F7780938000089584B58F7702C084B578
:101900008F7D84BD08958091B0008F7703C0809152
:10191000B0008F7D8093B0000895CF93DF9390E067
:10192000FC01E358FF4F2491FC01EF56FF4F8491D7
:10193000882349F190E0880F991FFC01E754FF4F7D
:10194000A591B49181559F4FFC01C591D4919FB74A
:10195000611108C0F8948C91209582238C93888122
:1019600082230AC0623051F4F8948C91322F309562
:1019700083238C938881822B888304C0F8948C9174
:10198000822B8C939FBFDF91CF9108950F931F936C
:10199000CF93DF931F92CDB7DEB7282F30E0F90148
:1019A000E759FF4F8491F901E358FF4F1491F90172
:1019B000EF56FF4F04910023C9F0882321F069837B
:1019C0000E94640C6981E02FF0E0EE0FFF1FE155EB
:1019D000FF4FA591B4919FB7F8948C91611103C00A
:1019E0001095812301C0812B8C939FBF0F90DF91B5
:1019F000CF911F910F910895CF93DF93282F30E05F
:101A0000F901E759FF4F8491F901E358FF4FD49151
:101A1000F901EF56FF4FC491CC2391F081110E9440
:101A2000640CEC2FF0E0EE0FFF1FEB55FF4FA5917C
:101A3000B4912C912D2381E090E021F480E002C04C
:101A400080E090E0DF91CF91089597FB072E16F488
:101A5000009407D077FD09D00E945B0D07FC05D0EC
:101A60003EF4909581959F4F0895709561957F4FB5
:101A70000895A1E21A2EAA1BBB1BFD010DC0AA1FCF
:101A8000BB1FEE1FFF1FA217B307E407F50720F0E7
:101A9000A21BB30BE40BF50B661F771F881F991F62
:101AA0001A9469F760957095809590959B01AC01AB
:101AB000BD01CF010895AA1BBB1B51E107C0AA1F9E
:101AC000BB1FA617B70710F0A61BB70B881F991FDF
:101AD0005A95A9F780959095BC01CD010895EE0F18
:101AE000FF1F0590F491E02D0994CF93DF9382308E
:101AF000910510F482E090E0E091C802F091C902F3
:101B000020E030E0A0E0B0E0309739F14081518131
:101B100048175907B8F04817590771F48281938123
:101B2000109729F013969C938E9312972CC0909344
:101B3000C9028093C80227C02115310531F0421730
:101B4000530718F0A901DB0101C0EF019A01BD01A3
:101B5000DF010280F381E02DD7CF21153105F9F0A7
:101B6000281B390B2430310580F48A819B81611553
:101B7000710521F0FB019383828304C09093C90215
:101B80008093C802FE01329644C0FE01E20FF31FAB
:101B90008193919322503109398328833AC020914F
:101BA000C6023091C702232B41F4209102013091EB
:101BB00003013093C7022093C602209100013091A7
:101BC00001012115310541F42DB73EB740910401C3
:101BD00050910501241B350BE091C602F091C7021C
:101BE000E217F307A0F42E1B3F0B2817390778F0F4
:101BF000AC014E5F5F4F2417350748F04E0F5F1F53
:101C00005093C7024093C6028193919302C0E0E0D3
:101C1000F0E0CF01DF91CF910895CF93DF9300974C
:101C200009F487C0FC01329713821282C091C80266
:101C3000D091C902209781F420813181280F391F6A
:101C40008091C6029091C7028217930779F5F093AD
:101C5000C702E093C6026DC0DE0120E030E0AE179F
:101C6000BF0750F412964D915C9113979D01411559
:101C7000510509F1DA01F3CFB383A2834081518189
:101C8000840F951F8A179B0771F48D919C91119772
:101C9000840F951F02969183808312968D919C915B
:101CA0001397938382832115310529F4F093C90298
:101CB000E093C8023EC0D9011396FC93EE931297AD
:101CC0004D915D91A40FB51FEA17FB0779F4808150
:101CD0009181840F951F0296D90111969C938E9342
:101CE0008281938113969C938E931297E0E0F0E0AB
:101CF0008A819B81009719F0FE01EC01F9CFCE019A
:101D0000029628813981820F931F2091C60230915B
:101D1000C7022817390769F4309729F41092C902CD
:101D20001092C80202C013821282D093C702C093DD
:101D3000C602DF91CF910895A0E0B0E0E2EAFEE0B4
:101D40000C94A90FEC01CB01209719F40E94750D9A
:101D5000B8C0FE01E60FF71F9E0122503109E217BD
:101D6000F30708F4ACC0D9010D911C911197061727
:101D70001707B8F00530110508F49FC0A8014450BA
:101D800051094617570708F498C002501109061B5D
:101D9000170B019311936D937C93CF010E940D0E4D
:101DA0008CC05B01A01AB10A4E01800E911EA09159
:101DB000C802B091C902612C712C60E070E01097EC
:101DC00009F449C0A815B905C9F5ED90FC90119723
:101DD000670142E0C40ED11CCA14DB0478F147014C
:101DE0008A189B08640142E0C40ED11C1296BC9074
:101DF00012971396AC91B5E0CB16D10440F0B282A5
:101E0000A38391828082D9018D939C9309C00E5F38
:101E10001F4F0E0D1F1DF90111830083EB2DFA2FAB
:101E20006115710531F0DB011396FC93EE93129767
:101E300044C0F093C902E093C8023FC06D917C9109
:101E400011976616770608F43B01BD0112960D90B6
:101E5000BC91A02DB4CF6091C6027091C7026815E5
:101E60007905E9F468167906D0F4409100015091A3
:101E700001014115510541F44DB75EB76091040170
:101E800070910501461B570BE417F507C0F4F0935A
:101E9000C702E093C602F901918380830EC00E94BD
:101EA000750D7C01009759F0A801BE010E94840FB6
:101EB000CE010E940D0EC70104C0CE0102C080E019
:101EC00090E0CDB7DEB7EEE00C94C50FFC0188279B
:101ED0009927E89421912032E9F3293010F02E302F
:101EE000C8F32B3241F02D3239F4689404C00E94BB
:101EF0009D0F820F911D219120532A30C0F31EF4B3
:101F0000909581959F4F0895FB01DC0102C00190DF
:101F10000D9241505040D8F70895FB01DC018D919E
:101F2000019080190110D9F3990B0895FB01DC0190
:101F300001900D920020E1F708957AE0979F902D8F
:101F4000879F802D910D112408952F923F924F92DB
:101F50005F926F927F928F929F92AF92BF92CF9239
:101F6000DF92EF92FF920F931F93CF93DF93CDB742
:101F7000DEB7CA1BDB0B0FB6F894DEBF0FBECDBFBA
:101F800009942A88398848885F846E847D848C848B
:101F90009B84AA84B984C884DF80EE80FD800C8194
:101FA0001B81AA81B981CE0FD11D0FB6F894DEBF77
:101FB0000FBECDBFED01089510E0CAECD0E004C023
:101FC000FE010E94710D2296CC3CD107C9F7F8940E
:021FD000FFCF41
:101FD2000000CA02800001000000011400E803585A
:101FE2000284036400B80B000032002C01FF00FFE2
:101FF20000FF017B2273656E736F72223A7B2200AF
:10200200227D7D007B227661726961626C65223A73
:102012007B220063757272656E74006300636C6F7D
:10202200006F70650073746F0073007370750073D6
:102032007064006D6375006D63640067007B2261EC
:1020420072645F73657474696E6773223A7B22737C
:10205200706565645570223A2200222C22737065E5
:102062006564446F776E223A2200222C226D6178D9
:1020720043757272656E745570223A2200222C22C8
:102082006D617843757272656E74446F776E223A31
:10209200220000000000D205870754056D055F0588
:1020A200B005000000003E070D0A006E616E006977
:0A20B2006E66006F7666002E0000D7
:00000001FF
