:100000000C9463000C948B000C948B000C948B006C
:100010000C948B000C948B000C948B000C948B0034
:100020000C948B000C948B000C948B000C948B0024
:100030000C948B000C948B000C948B000C948B0014
:100040000C94AF080C948B000C941F090C94F908C5
:100050000C948B000C948B000C948B000C948B00F4
:100060000C948B000C948B000000000024002700EF
:100070002A0000000000250028002B0000000000DE
:1000800023002600290004040404040404040202DA
:100090000202020203030303030301020408102007
:1000A0004080010204081020010204081020000012
:1000B0000008000201000003040700000000000027
:1000C000000051096B0A11241FBECFEFD8E0DEBF3C
:1000D000CDBF22E0AEECB1E001C01D92AD39B20758
:1000E000E1F711E0A0E0B1E0ECE7FAE102C0059031
:1000F0000D92AE3CB107D9F710E0C2E6D0E004C0E3
:100100002197FE010E94160BC136D107C9F70E9444
:1001100083090C94310D0C94000080E480937C00E2
:1001200080917A00806480937A0080917A0086FDC5
:10013000FCCF809178002091790090E0922B089577
:10014000833081F028F4813099F08230A1F0089555
:100150008730A9F08830B9F08430D1F480918000E4
:100160008F7D03C0809180008F77809380000895F9
:1001700084B58F7702C084B58F7D84BD089580914A
:10018000B0008F7703C08091B0008F7D8093B00066
:100190000895CF93DF93282F30E0F901E255FF4F08
:1001A0008491F901E656FF4FD491F901EA57FF4FC8
:1001B000C491CC2391F081110E94A000EC2FF0E0BB
:1001C000EE0FFF1FE458FF4FA591B491EC91ED2382
:1001D00081E090E021F480E002C080E090E0DF91D7
:1001E000CF9108951F93CF93DF93282F30E0F9012B
:1001F000E255FF4F8491F901E656FF4FD491F90182
:10020000EA57FF4FC491CC23C9F0162F81110E94E9
:10021000A000EC2FF0E0EE0FFF1FEE58FF4FA5916E
:10022000B4918FB7F894111105C09C91ED2FE09512
:10023000E92302C0EC91ED2BEC938FBFDF91CF91BE
:100240001F910895CF93DF9390E0FC01E656FF4F96
:100250002491FC01EA57FF4F8491882361F190E0DB
:10026000880F991FFC01E859FF4FC591D491FC01FB
:10027000EE58FF4FA591B491611109C09FB7F89452
:100280008881209582238883EC912E230BC06230D5
:1002900061F49FB7F8943881822F809583238883F7
:1002A000EC912E2B2C939FBF06C08FB7F894E8815A
:1002B0002E2B28838FBFDF91CF910895CF93DF93AB
:1002C000EC0161E085E00E942201209711F460E0DA
:1002D00004C0CF3FD10531F461E085E0DF91CF91DB
:1002E0000C94F200E3EBF0E0E491E330F9F048F431
:1002F000E130B9F0E230A1F584B5806284BDC8BDBB
:1003000034C0E730E9F0E83019F1E43049F5809184
:100310008000806280938000D0938B00C0938A001D
:1003200024C084B5806884BDC7BD1FC08091800093
:10033000806880938000D0938900C093880015C0A6
:100340008091B00080688093B000C093B3000DC06E
:100350008091B00080628093B000C093B40005C06B
:10036000C038D1050CF0B8CFB2CFDF91CF9108954E
:100370003FB7F8948091F2019091F301A091F401BC
:10038000B091F50126B5A89B05C02F3F19F0019645
:10039000A11DB11D3FBFBA2FA92F982F8827820F0B
:1003A000911DA11DB11DBC01CD0142E0660F771F5B
:1003B000881F991F4A95D1F708958F929F92AF9207
:1003C000BF92CF92DF92EF92FF926B017C010E946D
:1003D000B8014B015C01C114D104E104F104F1F056
:1003E0000E94B801DC01CB0188199909AA09BB094F
:1003F000883E9340A105B10570F321E0C21AD108EF
:10040000E108F10888EE880E83E0981EA11CB11C5B
:10041000C114D104E104F10419F7DDCFFF90EF908E
:10042000DF90CF90BF90AF909F908F9008952FB79F
:10043000F8946091EE017091EF018091F00190913C
:10044000F1012FBF0895CF92DF92EF92FF920F93A9
:100450001F93CF93DF936C017A018B01C0E0D0E052
:10046000CE15DF0589F0D8016D918D01D601ED9192
:10047000FC910190F081E02DC6010995892B11F4C2
:100480007E0102C02196ECCFC701DF91CF911F9171
:100490000F91FF90EF90DF90CF900895089580E046
:1004A00090E00895FC01538D448D252F30E0842F7A
:1004B00090E0821B930B541710F0CF96089501978C
:1004C0000895FC01918D828D981761F0828DDF0176
:1004D000A80FB11D5D968C91928D9F5F9F73928F37
:1004E00090E008958FEF9FEF0895FC01918D828D2C
:1004F000981731F0828DE80FF11D858D90E00895F9
:100500008FEF9FEF0895FC01918D228D892F90E050
:10051000805C9F4F821B91098F739927089586EF06
:1005200091E00E94830221E0892B09F420E0822FD0
:100530000895FC01848DDF01A80FB11DA35ABF4FA0
:100540002C91848D90E001968F739927848FA689D2
:10055000B7892C93A089B1898C9180648C93938DF9
:10056000848D981306C00288F389E02D80818F7DE9
:1005700080830895EF92FF920F931F93CF93DF93A1
:10058000EC0181E0888F9B8D8C8D981305C0E889E4
:10059000F989808185FD24C0F62E0B8D10E00F5F58
:1005A0001F4F0F731127E02E8C8DE8120CC00FB671
:1005B00007FCFACFE889F989808185FFF5CFCE0164
:1005C0000E949902F1CF8B8DFE01E80FF11DE35AD5
:1005D000FF4FF0820B8FEA89FB898081806207C020
:1005E000EE89FF896083E889F9898081806480834E
:1005F00081E090E0DF91CF911F910F91FF90EF90FC
:100600000895CF93DF93EC01888D8823C9F0EA89A0
:10061000FB89808185FD05C0A889B9898C9186FDFB
:100620000FC00FB607FCF5CF808185FFF2CFA889F8
:10063000B9898C9185FFEDCFCE010E949902E7CF59
:10064000DF91CF91089580E090E0892B29F00E94FE
:100650008F0281110C9400000895CF92DF92EF92E7
:10066000FF920F931F930E9417020091DC011091DB
:10067000DD012091DE013091DF016B017C01C01AA8
:10068000D10AE20AF30A4DE2C41641E0D406E104BD
:10069000F10420F16093DC017093DD018093DE01B1
:1006A0009093DF018091DA019091DB01892B39F47D
:1006B00081E090E09093DB018093DA0104C0109216
:1006C000DB011092DA016091DA018DE01F910F9148
:1006D000FF90EF90DF90CF900C94F2001F910F915C
:1006E000FF90EF90DF90CF90089561E084E00E944A
:1006F000F20061E082E00E94F20081E090E09093DD
:10070000E4018093E301089580E090E00E945E019F
:1007100060E087E00E94F20060E086E00E94F20064
:1007200060E08DE00E94F20081E090E09093D901BA
:100730008093D8011092D7011092D60108950097A6
:1007400069F0FC0101900020E9F73197AF01481BE7
:10075000590BBC0186EF91E00C94230280E090E0FD
:1007600008958F929F92AF92BF92CF92DF92EF92B5
:10077000FF920F931F93CF93DF93CDB7DEB7A1976F
:100780000FB6F894DEBF0FBECDBF6C01990FEE0817
:10079000FF08F7FE31C0E091F601F091F7010190FA
:1007A000F081E02D6DE286EF91E009958C01222722
:1007B0003327A9012C193D094E095F0919A2CE0161
:1007C00081967C019AE0892E912CA12CB12CCA0132
:1007D000B901A50194010E94E00A605DF7016293EE
:1007E0007F01211531054105510589F7CF010E948F
:1007F0009F03800F911F1DC0A701960119A28E01B2
:100800000F5D1F4F8AE0C82ED12CE12CF12CCA01BC
:10081000B901A70196010E94E00A605DF8016293A8
:100820008F01211531054105510589F7CF010E943E
:100830009F03A1960FB6F894DEBF0FBECDBFDF9128
:10084000CF911F910F91FF90EF90DF90CF90BF90CD
:10085000AF909F908F900895CF92DF92EF92FF928A
:100860000F931F93CF93DF93EC018B010E9417022C
:10087000C090CE01D090CF01E090D001F090D10196
:100880009B01AC012C193D094E095F0969017A01F0
:1008900033E3C316D104E104F10458F16093CE01AF
:1008A0007093CF018093D0019093D10181E291E0C8
:1008B0000E949F034C815D816881798186EF91E080
:1008C0000E94230280E891E00E949F03C8010E94D9
:1008D000B1038EE291E00E949F0382E391E0DF91F9
:1008E000CF911F910F91FF90EF90DF90CF900C94DC
:1008F0009F03DF91CF911F910F91FF90EF90DF90B9
:10090000CF9008950E94130DFC0124813581232B83
:1009100031F421E061157105A1F0FB0108C0FC0173
:10092000808191816115710531F421E0FC018081A4
:10093000882339F005C00E94210D21E0892B09F0A0
:1009400020E0822F0895FC01808191810C94B10BED
:100950000F931F93CF93DF93EC01888199810097C8
:1009600029F02A813B812617370788F48B016F5FB6
:100970007F4F0E94490C009761F0998388831B8305
:100980000A832C813D81232B11F4FC01108281E02C
:1009900001C080E0DF91CF911F910F910895EF92F8
:1009A000FF920F931F93CF93DF93EC017B018A019A
:1009B000BA010E94A8042881398181110DC0211536
:1009C000310519F0C9010E94B10B198218821D82EC
:1009D0001C821B821A8206C01D830C83B701C901C9
:1009E0000E942A0DCE01DF91CF911F910F91FF90B0
:1009F000EF900895CF93DF93EC016115710559F0E5
:100A0000FB0101900020E9F73197AF01461B570B1E
:100A10000E94CF040CC088819981009711F00E9438
:100A2000B10B198218821D821C821B821A82CE0190
:100A3000DF91CF910895FC011182108213821282FE
:100A4000158214826115710551F0FB01019000209F
:100A5000E9F73197AF01461B570B0C94CF0408956B
:100A6000BF92CF92DF92EF92FF920F931F93CF939B
:100A7000DF937C016B018A01E9012417350720F41B
:100A8000812F8901C42FD82F64E371E0C7010E9430
:100A90001B05D60114968D919C911597081719077F
:100AA000D0F48C179D0708F4EC01D601ED91FC9170
:100AB0001197EC0FFD1FB08010824D915C91BA012F
:100AC000600F711FC7010E94FA04D601ED91FC91DD
:100AD000EC0FFD1FB082C701DF91CF911F910F91E5
:100AE000FF90EF90DF90CF90BF900895FF920F930B
:100AF0001F93CF93DF93CDB7DEB768970FB6F89407
:100B0000DEBF0FBECDBFFF24F39486EF91E00E94BD
:100B10008302181619060CF054C186EF91E00E946A
:100B20008302181619068CF786EF91E00E94610285
:100B30008D3719F4F092E2012BC08B3739F464E35E
:100B400071E083E992E00E94FA0422C089831A824C
:100B500000919702109198020F5F1F4FB80183E92F
:100B600092E00E94A804882399F02091930230918A
:100B700094028091970290919802BE016F5F7F4F1F
:100B8000820F931F0E942A0D1093980200939702E0
:100B90008091E201882309F4B8CF1C8A1B8A1E8A3F
:100BA0001D8A188E1F8A60919302709194026115BC
:100BB000710541F04091970250919802CE01439601
:100BC0000E94CF0421E030E040E050E0BE016D5EC5
:100BD0007F4FCE010D960E94300525E030E042E0C7
:100BE00050E0BE016D5E7F4FCE0107960E9430053A
:100BF0002AE030E046E050E0BE016D5E7F4FCE015E
:100C000001960E94300565E371E0CE010D960E94C9
:100C10008404882349F167E371E0CE0107960E94BE
:100C20008404882319F00E94CC07AEC06BE371E006
:100C3000CE0107960E948404882319F00E94ED06D5
:100C4000A3C06FE371E0CE0107960E94840488235D
:100C500009F49AC08091E0019091E101019709F0B7
:100C600093C00E94840390C063E471E0CE010D96AE
:100C70000E948404882309F445C065E471E0CE0134
:100C800007960E948404882349F089819A810E94F2
:100C90006F0A909307018093060176C069E471E0C2
:100CA000CE0107960E948404882349F089819A81A5
:100CB0000E946F0A909305018093040165C06DE462
:100CC00071E0CE0107960E948404882349F089814F
:100CD0009A810E946F0A909303018093020154C08D
:100CE00061E571E0CE0107960E948404882309F42F
:100CF0004BC089819A810E946F0A90930101809371
:100D0000000142C065E571E0CE010D960E948404A9
:100D10008823D1F187E591E00E949F03809106012D
:100D2000909107010E94B10384E791E00E949F0324
:100D300080910401909105010E94B10384E891E043
:100D40000E949F0380910201909103010E94B103D0
:100D500087E991E00E949F03809100019091010139
:100D60000E94B1038CEA91E00E949F038091E00110
:100D70009091E1010E94B1038EE291E00E949F03F5
:100D800082E391E00E949F03CE0101960E94A3049A
:100D9000CE0107960E94A304CE010D960E94A304E3
:100DA000CE0143960E94A30486EF91E00E940103C6
:100DB00064E371E083E992E00E94FA041092E20198
:100DC000A4CE68960FB6F894DEBF0FBECDBFDF91FC
:100DD000CF911F910F91FF900895AF92BF92CF9244
:100DE000DF92EF92FF920F931F93CF93DF9300D088
:100DF00000D000D0CDB7DEB78091E3019091E4013F
:100E0000892B41F40E94750364E670E080E090E075
:100E10000E94DD018CE00E94C900892B09F03DC0D1
:100E200010920801C0900601D0900701C60164E14C
:100E300070E00E94CC0A5B0161E087E00E94F20052
:100E400060E086E00E94F20004E110E0E12CF12C69
:100E50000E942D03C7010E945E01EA0CFB1C69E1A0
:100E600070E080E090E00E94DD010150110981F7FF
:100E7000C6010E945E0161E087E00E94F20060E02E
:100E800086E00E94F20081E090E09093E10180937F
:100E9000E0011092D9011092D801EE24EA9483E087
:100EA000F82E8CE00E94C900892B09F045C062E34E
:100EB00070E080E090E00E94DD010E948D008701DB
:100EC000081B190B1093D7010093D60183E00E94F1
:100ED000C9009093D5018093D40180910201909133
:100EE00003018017910714F40E9484038091D401B8
:100EF0009091D501892B11F40E9484030091D601B1
:100F00001091D70165EC71E0CE0101960E941B059E
:100F1000B801CE0101960E942C04CE0101960E94D8
:100F2000A3040E9476050E942D038091D801909120
:100F3000D901019709F0B5CF8091D8019091D901DD
:100F4000892B61F40E94840360E08DE00E94F2002E
:100F500082E090E09093E1018093E00181E0809352
:100F600008010E9417026093E5017093E6018093E7
:100F7000E7019093E80126960FB6F894DEBF0FBE06
:100F8000CDBFDF91CF911F910F91FF90EF90DF9038
:100F9000CF90BF90AF900895AF92BF92CF92DF9263
:100FA000EF92FF920F931F93CF93DF9300D000D067
:100FB00000D0CDB7DEB78091E3019091E401892B99
:100FC00041F40E94750364E670E080E090E00E94C6
:100FD000DD0188E00E94C9009093D3018093D20183
:100FE000892B09F087C010920801C0900401D090AD
:100FF0000501C60164E170E00E94CC0A5B0160E07B
:1010000087E00E94F20061E086E00E94F20004E1C5
:1010100010E0E12CF12C0E942D03C7010E945E011B
:10102000EA0CFB1C69E170E080E090E00E94DD01C9
:101030000150110981F7C6010E945E0160E087E05E
:101040000E94F20061E086E00E94F20081E090E000
:101050009093E1018093E0011092D9011092D801A0
:1010600049C062E370E080E090E00E94DD010E94F0
:101070008D008C019093D7018093D60183E00E946C
:10108000C9009093D5018093D40180910001909183
:1010900001018017910714F40E9484038091D40108
:1010A0009091D501892B11F40E9484030091D601FF
:1010B0001091D70165EC71E0CE0101960E941B05ED
:1010C000B801CE0101960E942C04CE0101960E9427
:1010D000A3040E9476050E942D038091D80190916F
:1010E000D901019771F088E00E94C9009093D30163
:1010F0008093D2018091D2019091D301892B09F480
:10110000B0CF8091D8019091D901892B51F40E94E0
:10111000840360E08DE00E94F2001092E1011092E1
:10112000E00181E0809308010E9417026093E501CD
:101130007093E6018093E7019093E80126960FB63D
:10114000F894DEBF0FBECDBFDF91CF911F910F91FD
:10115000FF90EF90DF90CF90BF90AF9008951F92D7
:101160000F920FB60F9211242F933F938F939F935B
:10117000AF93BF938091EE019091EF01A091F001A8
:10118000B091F1013091ED0123E0230F2D3720F4D0
:101190000196A11DB11D05C026E8230F0296A11DD1
:1011A000B11D2093ED018093EE019093EF01A09388
:1011B000F001B093F1018091F2019091F301A091BF
:1011C000F401B091F5010196A11DB11D8093F201CA
:1011D0009093F301A093F401B093F501BF91AF9107
:1011E0009F918F913F912F910F900FBE0F901F9065
:1011F00018951F920F920FB60F9211242F933F93C1
:101200004F935F936F937F938F939F93AF93BF930E
:10121000EF93FF9386EF91E00E949902FF91EF9187
:10122000BF91AF919F918F917F916F915F914F91FE
:101230003F912F910F900FBE0F901F9018951F9206
:101240000F920FB60F9211242F938F939F93EF93CA
:10125000FF93E0910602F09107028081E0910C0279
:10126000F0910D0282FD12C0908180910F028F5F7C
:101270008F7320911002821751F0E0910F02F0E07D
:10128000EA50FE4F958F80930F0201C08081FF913D
:10129000EF919F918F912F910F900FBE0F901F9004
:1012A0001895E6EFF1E01382128288EE93E0A0E059
:1012B000B0E084839583A683B78383E191E0918333
:1012C000808385EC90E09587848784EC90E0978715
:1012D000868780EC90E0918B808B81EC90E0938B03
:1012E000828B82EC90E0958B848B86EC90E0978BE0
:1012F000868B118E128E138E148E64E371E083E957
:1013000092E00C941B05789484B5826084BD84B50A
:10131000816084BD85B5826085BD85B5816085BDF0
:1013200080916E00816080936E00109281008091A8
:101330008100826080938100809181008160809330
:101340008100809180008160809380008091B10055
:1013500084608093B1008091B00081608093B00080
:1013600080917A00846080937A0080917A00826014
:1013700080937A0080917A00816080937A008091D6
:101380007A00806880937A001092C10060E088E063
:101390000E94220160E08CE00E94220161E08DE069
:1013A0000E94220161E087E00E94220161E086E064
:1013B0000E94220160E089E00E94220160E08AE050
:1013C0000E94220162E083E00E94220161E084E049
:1013D0000E94220161E082E00E94220160E084E03C
:1013E0000E94F20060E082E00E94F200E0910602BA
:1013F000F091070282E08083E0910202F091030203
:101400001082E0910402F09105028FEC808310922B
:101410000E02E0910A02F0910B0286E08083E091D7
:101420000802F0910902808180618083E0910802C6
:10143000F0910902808188608083E0910802F09138
:101440000902808180688083E0910802F09109029E
:1014500080818F7D80830E9476050E9417022091F3
:1014600008012223F9F00091E5011091E601209195
:10147000E7013091E801DC01CB01801B910BA20B4D
:10148000B30B893B9B40A105B10560F060E084E0AF
:101490000E94F20060E082E00E94F2001092E401FB
:1014A0001092E30189E00E94C9009093EC018093BF
:1014B000EB01019711F40E94ED068AE00E94C90039
:1014C0009093EA018093E901019711F40E94CC07FF
:1014D0000E942303C0CF83E992E00C94A304FC0193
:1014E00088279927E89421912032E9F3293010F0D8
:1014F0002E30C8F32B3241F02D3239F4689404C0F9
:101500000E948D0A820F911D219120532A30C0F331
:101510001EF4909581959F4F08957AE0979F902DA6
:10152000879F802D910D112408952F923F924F9205
:101530005F926F927F928F929F92AF92BF92CF9263
:10154000DF92EF92FF920F931F93CF93DF93CDB76C
:10155000DEB7CA1BDB0B0FB6F894DEBF0FBECDBFE4
:1015600009942A88398848885F846E847D848C84B5
:101570009B84AA84B984C884DF80EE80FD800C81BE
:101580001B81AA81B981CE0FD11D0FB6F894DEBFA1
:101590000FBECDBFED01089597FB072E16F4009402
:1015A00007D077FD09D00E94020B07FC05D03EF45E
:1015B000909581959F4F0895709561957F4F0895FF
:1015C000A1E21A2EAA1BBB1BFD010DC0AA1FBB1F47
:1015D000EE1FFF1FA217B307E407F50720F0A21BB9
:1015E000B30BE40BF50B661F771F881F991F1A9426
:1015F00069F760957095809590959B01AC01BD0150
:10160000CF010895AA1BBB1B51E107C0AA1FBB1F36
:10161000A617B70710F0A61BB70B881F991F5A957E
:10162000A9F780959095BC01CD010895EE0FFF1F9D
:101630000590F491E02D0994CF93DF9382309105CA
:1016400010F482E090E0E0919B02F0919C0220E097
:1016500030E0C0E0D0E0309711F14081518148176F
:101660005907C0F04817590761F482819381209788
:1016700019F09B838A832BC090939C0280939B02DA
:1016800026C02115310519F04217530718F49A01A5
:10169000BE01DF01EF010280F381E02DDCCF2115D7
:1016A000310509F1281B390B2430310590F41296CD
:1016B0008D919C9113976115710521F0FB01938326
:1016C000828304C090939C0280939B02FD0132961A
:1016D00044C0FD01E20FF31F819391932250310921
:1016E0002D933C933AC02091990230919A02232B7A
:1016F00041F420910B0130910C0130939A02209318
:1017000099022091090130910A012115310541F416
:101710002DB73EB740910D0150910E01241B350BA2
:10172000E0919902F0919A02E217F307A0F42E1BC0
:101730003F0B2817390778F0AC014E5F5F4F241735
:10174000350748F04E0F5F1F50939A02409399025D
:101750008193919302C0E0E0F0E0CF01DF91CF915F
:1017600008950F931F93CF93DF93009709F48CC0D4
:10177000FC0132971382128200919B0210919C020D
:101780000115110581F420813181820F931F209171
:10179000990230919A022817390779F5F0939A0245
:1017A000E093990271C0D80140E050E0AE17BF0746
:1017B00050F412962D913C911397AD0121153105EE
:1017C00009F1D901F3CF9D01DA01338322836081CE
:1017D0007181860F971F8217930769F4EC012881A6
:1017E0003981260F371F2E5F3F4F318320838A8137
:1017F0009B8193838283452B29F4F0939C02E09391
:101800009B0242C01396FC93EE931297ED0149910F
:1018100059919E01240F351FE217F30771F480815F
:101820009181840F951F029611969C938E938281CD
:10183000938113969C938E931297E0E0F0E0D80189
:1018400012968D919C911397009719F0F8018C01D5
:10185000F6CF8D919C9198012E5F3F4F820F931F81
:101860002091990230919A022817390769F430972C
:1018700029F410929C0210929B0202C013821282E1
:1018800010939A0200939902DF91CF911F910F91CB
:101890000895A0E0B0E0EFE4FCE00C94990AEC01BC
:1018A000009721F4CB010E941C0BB8C0FC01E60F8D
:1018B000F71F9C0122503109E217F30708F4ACC06E
:1018C000D9010D911C91119706171707B0F005303B
:1018D000110508F49FC0C80104978617970708F4FC
:1018E00099C002501109061B170B019311936D93B8
:1018F0007C93CF010E94B10B8DC05B01A01AB10A8D
:101900004C01800E911EA0919B02B0919C0240E080
:1019100050E0E12CF12C109709F44AC0A815B90544
:10192000D1F56D907C901197630182E0C80ED11CB7
:10193000CA14DB0480F1A3014A195B096A0182E041
:10194000C80ED11C1296BC9012971396AC91B5E0BC
:10195000CB16D10440F0B282A38351834083D901D6
:101960006D937C930AC00E5F1F4FC301800F911FC0
:10197000F90191838083EB2DFA2FE114F10431F00A
:10198000D7011396FC93EE93129744C0F0939C02F8
:10199000E0939B023FC08D919C9111974817590786
:1019A00008F4AC017D0112960D90BC91A02DB3CF2F
:1019B0008091990290919A0288159905E1F4461751
:1019C0005707C8F48091090190910A01009741F4EA
:1019D0008DB79EB740910D0150910E01841B950B60
:1019E000E817F907C8F4F0939A02E0939902F90115
:1019F000718360830FC0CB010E941C0B7C01009798
:101A000059F0A801BE010E94180DCE010E94B10B31
:101A1000C70104C0CE0102C080E090E0CDB7DEB7C0
:101A2000EEE00C94B50A81E090E0F8940C94310D4E
:101A3000FB01DC0102C001900D9241505040D8F7EB
:101A40000895FB01DC018D91019080190110D9F3FB
:101A5000990B0895FB01DC0101900D920020E1F744
:101A6000089510E0C2E6D0E004C0FE010E94160B0B
:0C1A70002196C336D107C9F7F894FFCFC8
:101A7C0058028403FF00FF000100009D028000005B
:101A8C00000000BA022302520201038302610275B4
:101A9C00027B2273656E736F72223A7B2200227D69
:101AAC007D000D0A006300636C6F006F706500733E
:101ABC00746F00730073707500737064006D6375E0
:101ACC00006D63640067007B226172645F736574F0
:101ADC0074696E6773223A7B227370656564557006
:101AEC00223A2200222C227370656564446F776E53
:101AFC00223A2200222C226D617843757272656E37
:101B0C00745570223A2200222C226D617843757232
:101B1C0072656E74446F776E223A2200222C226416
:101B2C006F6F725374617465496E64696361746F2D
:0E1B3C0072223A220063757272656E740000A8
:00000001FF
