:100000000C9464000C948C000C948C000C948C0068
:100010000C948C000C948C000C948C000C948C0030
:100020000C948C000C948C000C948C000C948C0020
:100030000C948C000C948C000C948C000C948C0010
:100040000C94D9090C948C000C94B9060C94EB0612
:100050000C948C000C948C000C948C000C948C00F0
:100060000C948C000C948C0000000008000201002D
:100070000003040700000000000000000102040863
:100080001020408001020408102001020408102002
:10009000040404040404040402020202020203032E
:1000A00003030303000000002300260029000000D2
:1000B0000000250028002B0000000000240027007D
:1000C0002A0085021B078B0211241FBECFEFD8E048
:1000D000DEBFCDBF11E0A0E0B1E0E2E9FDE102C08A
:1000E00005900D92AE3DB107D9F722E0AEEDB1E03B
:1000F00001C01D92AD3AB207E1F710E0C6ECD0E0C6
:1001000004C02297FE010E94510CC23CD107C9F7DE
:100110000E94CA090C94BC0E0C9400008F929F920E
:10012000AF92BF92CF92DF92EF92FF920F931F9305
:10013000CF93DF938C01EB010E94230AC090ED0165
:10014000D090EE01E090EF01F090F0014B015C01E6
:100150008C189D08AE08BF08C0901501D0901601FC
:10016000EE24D7FCE094FE2CC814D904EA04FB0466
:1001700090F56093ED017093EE018093EF01909301
:10018000F0016EE171E083E092E00E94AA07B801FD
:1001900083E092E00E949C0761E971E083E092E0D5
:1001A0000E94AA074AE050E0BE0183E092E00E946C
:1001B00062086BE271E083E092E0DF91CF911F91E2
:1001C0000F91FF90EF90DF90CF90BF90AF909F90F6
:1001D0008F900C94B707DF91CF911F910F91FF90F3
:1001E000EF90DF90CF90BF90AF909F908F90089549
:1001F00060E070E085E00E94E40A60E087E00E9431
:10020000A50B60E086E00E94A50B60E08DE00E94F7
:10021000A50B81E090E09093EC018093EB011092AC
:10022000F8011092F701089561E084E00E94A50BA7
:1002300061E082E00E94A50B81E090E09093FA01DA
:100240008093F901089560E084E00E94A50B60E0CE
:1002500082E00E94A50B1092FA011092F901089514
:10026000CF92DF92EF92FF920F931F930E94230A87
:100270000091F1011091F2012091F3013091F4010C
:100280006B017C01C01AD10AE20AF30A009117013E
:1002900010911801222717FD2095322F0C151D05EE
:1002A0002E053F0520F56093F1017093F2018093D4
:1002B000F3019093F4018091F5019091F601892B5F
:1002C00039F481E090E09093F6018093F50104C049
:1002D0001092F6011092F5016091F5018DE01F91E9
:1002E0000F91FF90EF90DF90CF900C94A50B1F9192
:1002F0000F91FF90EF90DF90CF9008958F929F9293
:10030000AF92BF92CF92DF92EF92FF920F931F9323
:10031000CF93DF93FC0110920601209107013091E9
:1003200008018091090190910A01B9010E94050C10
:10033000EB01E130F10579F58091190190911A01F5
:10034000B9010E94050C5B0161E087E00E94A50BEA
:1003500060E086E00E94A50B00E010E0812C912C6B
:100360006E01EE24D7FCE094FE2C0E943001B8010F
:1003700085E00E94E40A0A0D1B1DC701B6010E9418
:10038000520A8C0E9D1E8091090190910A018816D7
:1003900099065CF330C0EF2B71F580911B019091B1
:1003A0001C01B9010E94050C5B0160E087E00E941E
:1003B000A50B61E086E00E94A50B00E010E0812C17
:1003C000912C6E01EE24D7FCE094FE2C0E943001AB
:1003D000B80185E00E94E40A0A0D1B1DC701B601A1
:1003E0000E94520A8C0E9D1E8091090190910A0173
:1003F000881699065CF3DF91CF911F910F91FF90C2
:10040000EF90DF90CF90BF90AF909F908F90089526
:1004100081E0809306010E94230A6093E7017093B4
:10042000E8018093E9019093EA010895CF92DF9269
:10043000EF92FF920F931F930E94230A20910601CF
:10044000222319F10091E7011091E8012091E901BF
:100450003091EA016B017C01C01AD10AE20AF30A69
:100460008091110190911201A0911301B09114019A
:100470008C159D05AE05BF0540F41F910F91FF90AF
:10048000EF90DF90CF900C9423011F910F91FF907C
:10049000EF90DF90CF90089560E088E00E946C0BB1
:1004A00060E08CE00E946C0B61E08DE00E946C0BC0
:1004B00061E087E00E946C0B61E086E00E946C0BBB
:1004C00060E089E00E946C0B60E08AE00E946C0BA7
:1004D00062E083E00E946C0B61E084E00E946C0BA0
:1004E00061E082E00E946C0B60E084E00E94A50B5A
:1004F00060E082E00E94A50B26E040E855E260E063
:1005000070E083E092E00C9457066FEC71E080EEAF
:1005100091E00C94D80880EE91E00C946A081F9347
:10052000CF93DF9300D000D000D0CDB7DEB711E07D
:1005300083E092E00E94740518161906ECF583E03A
:1005400092E00E9474051816190694F783E092E071
:100550000E948D058D3719F41093E6010EC08B377C
:1005600039F46FEC71E080EE91E00E940E0905C055
:10057000682F80EE91E00E9452098091E601882365
:10058000B9F260EE71E0CE0101960E940509CE013C
:1005900001960E944C04CE0101960E946A0883E0F5
:1005A00092E00E94D0056FEC71E080EE91E00E9435
:1005B0000E091092E601BCCF26960FB6F894DEBF66
:1005C0000FBECDBFDF91CF911F9108950F931F9361
:1005D000CF93DF9300D000D000D0CDB7DEB78091AD
:1005E000F9019091FA01892B61F40E941401609144
:1005F0000F0170911001882777FD8095982F0E9438
:10060000520A88E00E94DB0B909300028093FF0166
:10061000892B09F06BC080E090E00E947E01609120
:100620001B0170911C0185E00E94E40A60E087E0F4
:100630000E94A50B61E086E00E94A50B81E090E09E
:1006400090930202809301021092EC011092EB0150
:100650004DC062E370E080E090E00E94520A8EE0BC
:100660000E94C70A9093F8018093F70183E00E94EB
:10067000DB0B9093DF018093DE012091F701309135
:10068000F80180910B0190910C018217930714F4EB
:100690000E94F8008091DE019091DF01892B11F416
:1006A0000E94F8000091F7011091F8016EE371E0EB
:1006B000CE0101960E94D808B801CE0101960E9491
:1006C0008E00CE0101960E946A080E948F020E944D
:1006D00030018091EB019091EC01019771F088E07D
:1006E0000E94DB0B909300028093FF018091FF0139
:1006F00090910002892B09F4ACCF8091EB0190918D
:10070000EC01892B51F40E94F80060E08DE00E941A
:10071000A50B10920202109201020E940802269676
:100720000FB6F894DEBF0FBECDBFDF91CF911F9102
:100730000F910895EF92FF920F931F93CF93DF9342
:1007400000D000D000D0CDB7DEB78091F9019091F4
:10075000FA01892B61F40E94140160910F017091DC
:100760001001882777FD8095982F0E94520A8CE00F
:100770000E94DB0B892BE9F481E090E00E947E016E
:100780006091190170911A0185E00E94E40A61E00C
:1007900087E00E94A50B60E086E00E94A50B81E047
:1007A00090E090930202809301021092EC0110926B
:1007B000EB010FEF13E08CE00E94DB0B892B09F0BB
:1007C0004AC062E370E080E090E00E94520A8EE04E
:1007D0000E94C70A9801281B390B3093F801209317
:1007E000F70183E00E94DB0B9093DF018093DE0131
:1007F0002091F7013091F80180910D0190910E0147
:100800008217930714F40E94F8008091DE01909102
:10081000DF01892B11F40E94F800E090F701F090BD
:10082000F8016EE371E0CE0101960E94D808B7018D
:10083000CE0101960E948E00CE0101960E946A08A8
:100840000E948F020E9430018091EB019091EC0197
:10085000019709F0B0CF8091EB019091EC01892BC9
:1008600061F40E94F80060E08DE00E94A50B82E038
:1008700090E090930202809301020E940802269663
:100880000FB6F894DEBF0FBECDBFDF91CF911F91A1
:100890000F91FF90EF9008950F931F93CF93DF93E5
:1008A000CDB7DEB762970FB6F894DEBF0FBECDBFEF
:1008B0008C0121E030E040E050E0BC01CE010D961B
:1008C0000E94840925E030E042E050E0B801CE010A
:1008D00007960E9484092AE030E046E050E0B80123
:1008E000CE0101960E94840966E471E0CE010D9666
:1008F0000E946509882349F168E471E0CE010796FA
:100900000E946509882319F00E94E602BBC06CE4CE
:1009100071E0CE0107960E946509882319F00E94B4
:100920009A03B0C060E571E0CE0107960E946509A8
:10093000882309F4A7C080910102909102020197D7
:1009400009F0A0C00E94F8009DC064E571E0CE01EE
:100950000D960E946509882309F445C066E571E09B
:10096000CE0107960E946509882349F089819A8102
:100970000E94460E90931A018093190183C06AE584
:1009800071E0CE0107960E946509882349F08981AC
:100990009A810E94460E90931C0180931B0172C0A5
:1009A0006EE571E0CE0107960E946509882349F043
:1009B00089819A810E94460E90930E0180930D01C9
:1009C00061C062E671E0CE0107960E946509882346
:1009D00009F458C089819A810E94460E90930C01B7
:1009E00080930B014FC066E671E0CE010D960E9428
:1009F0006509882309F446C068E671E083E092E067
:100A00000E94AA076091190170911A014AE050E012
:100A100083E092E00E94620865E871E083E092E082
:100A20000E94AA0760911B0170911C014AE050E0EE
:100A300083E092E00E94620865E971E083E092E061
:100A40000E94AA0760910D0170910E014AE050E0EA
:100A500083E092E00E94620868EA71E083E092E03D
:100A60000E94AA0760910B0170910C014AE050E0CE
:100A700083E092E00E9462086BE271E083E092E022
:100A80000E94B707CE0101960E946A08CE01079620
:100A90000E946A08CE010D960E946A0862960FB6FF
:100AA000F894DEBF0FBECDBFDF91CF911F910F91A4
:100AB00008950E948F020E94160289E00E94DB0BBB
:100AC0009093FE018093FD01019711F40E949A0317
:100AD0008AE00E94DB0B9093FC018093FB0101975D
:100AE00011F40C94E6020895FC01818D228D90E0B2
:100AF000805C9F4F821B91098F7399270895FC0199
:100B0000918D828D981731F0828DE80FF11D858DC2
:100B100090E008958FEF9FEF0895FC01918D828DF5
:100B2000981761F0828DDF01A80FB11D5D968C9141
:100B3000928D9F5F9F73928F90E008958FEF9FEF4C
:100B4000089581E197E0892B49F080E090E0892BBE
:100B500029F00E94110781110C9400000895FC01F6
:100B6000848DDF01A80FB11DA35ABF4F2C91848D36
:100B700090E001968F739927848FA689B7892C936B
:100B8000A089B1898C9180648C93938D848D981306
:100B900006C00288F389E02D80818F7D80830895CF
:100BA000CF93DF93EC01888D8823C9F0EA89FB8914
:100BB000808185FD05C0A889B9898C9186FD0FC00B
:100BC0000FB607FCF5CF808185FFF2CFA889B989E0
:100BD0008C9185FFEDCFCE010E94AF05E7CFDF916D
:100BE000CF910895CF92DF92FF920F931F93CF93EF
:100BF000DF931F92CDB7DEB76C0181E0D601589626
:100C00008C9358975B969C915B975C968C915C97C4
:100C1000981307C05096ED91FC915197808185FD06
:100C20002EC0F601038D10E00F5F1F4F0F731127C9
:100C3000F02EF601848DF81211C00FB607FCF9CF23
:100C4000D6015096ED91FC915197808185FFF1CFAF
:100C5000C60169830E94AF056981EBCF838DE80FE0
:100C6000F11DE35AFF4F6083D6015B960C935B97AF
:100C70005296ED91FC915397808180620CC0D60111
:100C80005696ED91FC91579760835096ED91FC91AB
:100C9000519780818064808381E090E00F90DF91A4
:100CA000CF911F910F91FF90DF90CF900895BF9249
:100CB000CF92DF92EF92FF92CF93DF93EC016A0124
:100CC0007B01B22EE889F98982E08083411581EEAB
:100CD000580761057105A1F060E079E08DE390E0CF
:100CE000A70196010E94190C2150310941095109AF
:100CF0005695479537952795211580E1380798F047
:100D0000E889F989108260E874E88EE190E0A70133
:100D100096010E94190C215031094109510956953B
:100D2000479537952795EC85FD853083EE85FF85C2
:100D30002083188EEC89FD89B082EA89FB89808145
:100D400080618083EA89FB89808188608083EA8969
:100D5000FB89808180688083EA89FB8980818F7D1F
:100D60008083DF91CF91FF90EF90DF90CF90BF9085
:100D700008951F920F920FB60F9211242F938F9305
:100D80009F93EF93FF93E0911302F09114028081FF
:100D9000E0911902F0911A0282FD12C090818091B7
:100DA0001C028F5F8F7320911D02821751F0E0911A
:100DB0001C02F0E0ED5FFD4F958F80931C0201C097
:100DC0008081FF91EF919F918F912F910F900FBE96
:100DD0000F901F9018951F920F920FB60F9211242B
:100DE0002F933F934F935F936F937F938F939F9333
:100DF000AF93BF93EF93FF9383E092E00E94AF0520
:100E0000FF91EF91BF91AF919F918F917F916F91E2
:100E10005F914F913F912F910F900FBE0F901F90B8
:100E2000189583E092E00E94740521E0892B09F473
:100E300020E0822F0895109206021092050288EE9B
:100E400093E0A0E0B0E08093070290930802A093A3
:100E50000902B0930A0281EC91E09093040280931E
:100E6000030285EC90E09093100280930F0284ECD3
:100E700090E0909312028093110280EC90E09093A6
:100E800014028093130281EC90E0909316028093F9
:100E9000150282EC90E0909318028093170286EC82
:100EA00090E090931A028093190210921C02109203
:100EB0001D0210921E0210921F020895CF92DF921F
:100EC000EF92FF920F931F93CF93DF937C016A0100
:100ED000EB0100E010E00C151D0571F06991D701E0
:100EE000ED91FC910190F081E02DC7010995892BCE
:100EF00019F00F5F1F4FEFCFC801DF91CF911F9106
:100F00000F91FF90EF90DF90CF90089561157105DC
:100F100081F0DB010D900020E9F7AD01415051094E
:100F2000461B570BDC01ED91FC910280F381E02D13
:100F3000099480E090E00895DC01ED91FC91DB01E3
:100F400014964D915C9115976D917C910280F3817F
:100F5000E02D09940C948607DC01ED91FC91019041
:100F6000F081E02D09946DEC71E00C9486070F93ED
:100F70001F93CF93DF93EC010E9486078C01CE0173
:100F80000E94B307800F911FDF91CF911F910F91A6
:100F900008958F929F92AF92BF92DF92EF92FF924D
:100FA0000F931F93CF93DF93CDB7DEB7A1970FB603
:100FB000F894DEBF0FBECDBF7C01F42FD52ECB0140
:100FC00019A2223008F42AE08E010F5D1F4F822EF5
:100FD000912CA12CB12C6F2F7D2DA50194010E9485
:100FE000190CF22FD32ECA01015011096A3014F4E2
:100FF000E0E301C0E7E3E60FD801EC93232B242BB9
:10100000252B49F7B801C7010E948607A1960FB6A4
:10101000F894DEBF0FBECDBFDF91CF911F910F912E
:10102000FF90EF90DF90BF90AF909F908F900895CA
:10103000CF92DF92EF92FF920F931F93CF93DF93A4
:10104000EC016A017B012115310579F4E881F98110
:101050000190F081E02D642FDF91CF911F910F91CE
:10106000FF90EF90DF90CF9009942A303105E9F49A
:1010700077FF1AC06DE20E94AC078C014427552708
:10108000BA014C195D096E097F092AE0CE010E9460
:10109000C907800F911FDF91CF911F910F91FF9092
:1010A000EF90DF90CF9008952AE0B701A601CE011E
:1010B000DF91CF911F910F91FF90EF90DF90CF9034
:1010C0000C94C9079A01AB01662757FD6095762FEE
:1010D0000C941808FC01808191810C94ED0CCF9345
:1010E000DF93EC0188819981009711F00E94ED0C4B
:1010F000198218821D821C821B821A82DF91CF9175
:1011000008950F931F93CF93DF93EC018B016F5FD3
:101110007F4F888199810E947C0D009731F09983DF
:1011200088831B830A8381E001C080E0DF91CF9137
:101130001F910F910895CF93DF93EC0188819981DE
:10114000892B29F08A819B818617970760F4CE014D
:101150000E948108882341F08C819D81892B19F49C
:10116000E881F981108281E0DF91CF910895EF92BB
:10117000FF920F931F93CF93DF93EC017B018A01C2
:10118000BA010E949B08811104C0CE010E946F0821
:1011900007C01D830C83B701888199810E94760E58
:1011A000CE01DF91CF911F910F91FF90EF900895A5
:1011B000FC01118210821382128215821482611541
:1011C000710559F0FB0101900020E9F7AF01415092
:1011D0005109461B570B0C94B7080895CF93DF9322
:1011E000EC01FB018617970761F060817181611541
:1011F000710529F0448155810E94B70802C00E9400
:101200006F08CE01DF91CF910895FC011182108209
:1012100013821282158214820C94EE08CF93DF930E
:10122000EC016115710561F0FB0101900020E9F707
:10123000AF0141505109461B570B0E94B70802C02D
:101240000E946F08CE01DF91CF910895EF92FF9237
:101250000F931F93CF93DF93EC017B010C811D81D2
:101260006115710511F480E016C04115510591F02A
:10127000040F151FB8010E949B088823A1F3288141
:1012800039818C819D81B701820F931F0E94760E58
:101290001D830C8381E0DF91CF911F910F91FF900F
:1012A000EF900895CF93DF9300D0CDB7DEB7698379
:1012B0001A8241E050E0BE016F5F7F4F0E94260915
:1012C0000F900F90DF91CF910895FC01248135811B
:1012D000232B31F421E061157105A1F0FB0108C059
:1012E000FC01808191816115710531F421E0FC01DF
:1012F0008081882339F005C00E946D0E21E0892B82
:1013000009F020E0822F0895BF92CF92DF92EF92F2
:10131000FF920F931F93CF93DF936C017B01EA0140
:1013200089012417350720F48D2FE901042F182F88
:101330006FEC71E0C6010E94D808D70114968D9118
:101340009C911597C817D907C8F48017910708F41E
:101350008C01D701ED91FC911197E00FF11FB08046
:1013600010826D917C916C0F7D1FC6010E940E0949
:10137000D701ED91FC91E00FF11FB082C601DF9122
:10138000CF911F910F91FF90EF90DF90CF90BF9082
:10139000089508950E948C0A0E94C9090E944C0277
:1013A000C1EAD5E00E9459052097E1F30E94A1050A
:1013B000F9CF1F920F920FB60F9211242F933F93E4
:1013C0008F939F93AF93BF938091A1029091A202BC
:1013D000A091A302B091A4023091A00223E0230FB8
:1013E0002D3720F40196A11DB11D05C026E8230F5D
:1013F0000296A11DB11D2093A0028093A10290939B
:10140000A202A093A302B093A4028091A50290919E
:10141000A602A091A702B091A8020196A11DB11D3C
:101420008093A5029093A602A093A702B093A8026E
:10143000BF91AF919F918F913F912F910F900FBED0
:101440000F901F9018952FB7F8946091A10270919A
:10145000A2028091A3029091A4022FBF08953FB7EA
:10146000F8948091A5029091A602A091A702B09154
:10147000A80226B5A89B05C02F3F19F00196A11D13
:10148000B11D3FBF6627782F892F9A2F620F711DDC
:10149000811D911D42E0660F771F881F991F4A9595
:1014A000D1F708958F929F92AF92BF92CF92DF9221
:1014B000EF92FF926B017C010E942F0A4B015C01AD
:1014C000C114D104E104F104F1F00E94040C0E9463
:1014D0002F0A681979098A099B09683E73408105BA
:1014E000910570F321E0C21AD108E108F10888EEF5
:1014F000880E83E0981EA11CB11CC114D104E10424
:10150000F10429F7DDCFFF90EF90DF90CF90BF90EF
:10151000AF909F908F900895789484B5826084BD39
:1015200084B5816084BD85B5826085BD85B58160E7
:1015300085BDEEE6F0E0808181608083E1E8F0E047
:101540001082808182608083808181608083E0E876
:10155000F0E0808181608083E1EBF0E08081846055
:101560008083E0EBF0E0808181608083EAE7F0E057
:1015700080818460808380818260808380818160BB
:1015800080838081806880831092C10008958E30AE
:1015900008F08E50877020911D0190E4299F9001E2
:1015A0001124822B80937C0080917A008064809348
:1015B0007A0080917A0086FDFCCF8091780020919E
:1015C000790090E0922B08951F93CF93DF93182F0B
:1015D000EB0161E00E946C0B209711F460E004C005
:1015E000CF3FD10539F461E0812FDF91CF911F9179
:1015F0000C94A50BE12FF0E0E859FF4FE491E330A4
:10160000F9F048F4E130B9F0E230A1F584B5806238
:1016100084BDC8BD34C0E730E9F0E83019F1E430EA
:1016200049F580918000806280938000D0938B0088
:10163000C0938A0024C084B5806884BDC7BD1FC024
:1016400080918000806880938000D0938900C0934F
:10165000880015C08091B00080688093B000C0936E
:10166000B3000DC08091B00080628093B000C09341
:10167000B40005C0C038D1050CF0B5CFAFCFDF91B5
:10168000CF911F910895833081F028F4813099F033
:101690008230A1F008958730A9F08830B9F0843005
:1016A000D1F4809180008F7D03C0809180008F777E
:1016B00080938000089584B58F7702C084B58F7DB4
:1016C00084BD08958091B0008F7703C08091B000F1
:1016D0008F7D8093B0000895CF93DF9390E0FC015D
:1016E000E458FF4F2491FC01E057FF4F8491882379
:1016F00049F190E0880F991FFC01E854FF4FA59134
:10170000B49182559F4FFC01C591D4919FB761114F
:1017100008C0F8948C91209582238C938881822331
:101720000AC0623051F4F8948C91322F30958323A3
:101730008C938881822B888304C0F8948C91822BAF
:101740008C939FBFDF91CF9108950F931F93CF93F9
:10175000DF931F92CDB7DEB7282F30E0F901E859AB
:10176000FF4F8491F901E458FF4F1491F901E057BC
:10177000FF4F04910023C9F0882321F069830E9460
:10178000430B6981E02FF0E0EE0FFF1FE255FF4FA2
:10179000A591B4919FB7F8948C91611103C01095F5
:1017A000812301C0812B8C939FBF0F90DF91CF913C
:1017B0001F910F910895CF93DF93282F30E0F90107
:1017C000E859FF4F8491F901E458FF4FD491F90192
:1017D000E057FF4FC491CC2391F081110E94430B3D
:1017E000EC2FF0E0EE0FFF1FEC55FF4FA591B491E9
:1017F0002C912D2381E090E021F480E002C080E074
:1018000090E0DF91CF910895089597FB072E16F48D
:10181000009407D077FD09D00E943B0C07FC05D04F
:101820003EF4909581959F4F0895709561957F4FF7
:101830000895A1E21A2EAA1BBB1BFD010DC0AA1F11
:10184000BB1FEE1FFF1FA217B307E407F50720F029
:10185000A21BB30BE40BF50B661F771F881F991FA4
:101860001A9469F760957095809590959B01AC01ED
:10187000BD01CF010895AA1BBB1B51E107C0AA1FE0
:10188000BB1FA617B70710F0A61BB70B881F991F21
:101890005A95A9F780959095BC01CD010895EE0F5A
:1018A000FF1F0590F491E02D0994CF93DF938230D0
:1018B000910510F482E090E0E091AB02F091AC026F
:1018C00020E030E0A0E0B0E0309739F14081518174
:1018D00048175907B8F04817590771F48281938166
:1018E000109729F013969C938E9312972CC0909387
:1018F000AC028093AB0227C02115310531F04217AD
:10190000530718F0A901DB0101C0EF019A01BD01E5
:10191000DF010280F381E02DD7CF21153105F9F0E9
:10192000281B390B2430310580F48A819B81611595
:10193000710521F0FB019383828304C09093AC0274
:101940008093AB02FE01329644C0FE01E20FF31F0A
:101950008193919322503109398328833AC0209191
:10196000A9023091AA02232B41F420910201309167
:1019700003013093AA022093A90220910001309123
:1019800001012115310541F42DB73EB74091040105
:1019900050910501241B350BE091A902F091AA0298
:1019A000E217F307A0F42E1B3F0B2817390778F036
:1019B000AC014E5F5F4F2417350748F04E0F5F1F95
:1019C0005093AA024093A9028193919302C0E0E050
:1019D000F0E0CF01DF91CF910895CF93DF9300978F
:1019E00009F487C0FC01329713821282C091AB02C6
:1019F000D091AC02209781F420813181280F391FCA
:101A00008091A9029091AA028217930779F5F09329
:101A1000AA02E093A9026DC0DE0120E030E0AE171B
:101A2000BF0750F412964D915C9113979D0141159B
:101A3000510509F1DA01F3CFB383A28340815181CB
:101A4000840F951F8A179B0771F48D919C911197B4
:101A5000840F951F02969183808312968D919C919D
:101A60001397938382832115310529F4F093AC02F7
:101A7000E093AB023EC0D9011396FC93EE9312970C
:101A80004D915D91A40FB51FEA17FB0779F4808192
:101A90009181840F951F0296D90111969C938E9384
:101AA0008281938113969C938E931297E0E0F0E0ED
:101AB0008A819B81009719F0FE01EC01F9CFCE01DC
:101AC000029628813981820F931F2091A9023091BB
:101AD000AA022817390769F4309729F41092AC024A
:101AE0001092AB0202C013821282D093AA02C0935A
:101AF000A902DF91CF910895A0E0B0E0E2E8FDE017
:101B00000C94890EEC01CB01209719F40E94550C1E
:101B1000B8C0FE01E60FF71F9E0122503109E217FF
:101B2000F30708F4ACC0D9010D911C911197061769
:101B30001707B8F00530110508F49FC0A8014450FC
:101B400051094617570708F498C002501109061B9F
:101B5000170B019311936D937C93CF010E94ED0CB1
:101B60008CC05B01A01AB10A4E01800E911EA0919B
:101B7000AB02B091AC02612C712C60E070E0109768
:101B800009F449C0A815B905C9F5ED90FC90119765
:101B9000670142E0C40ED11CCA14DB0478F147018E
:101BA0008A189B08640142E0C40ED11C1296BC90B6
:101BB00012971396AC91B5E0CB16D10440F0B282E7
:101BC000A38391828082D9018D939C9309C00E5F7B
:101BD0001F4F0E0D1F1DF90111830083EB2DFA2FEE
:101BE0006115710531F0DB011396FC93EE931297AA
:101BF00044C0F093AC02E093AB023FC06D917C9186
:101C000011976616770608F43B01BD0112960D90F8
:101C1000BC91A02DB4CF6091A9027091AA02681561
:101C20007905E9F468167906D0F4409100015091E5
:101C300001014115510541F44DB75EB760910401B2
:101C400070910501461B570BE417F507C0F4F0939C
:101C5000AA02E093A902F901918380830EC00E9439
:101C6000550C7C01009759F0A801BE010E94640E3A
:101C7000CE010E94ED0CC70104C0CE0102C080E07D
:101C800090E0CDB7DEB7EEE00C94A50EFC018827FE
:101C90009927E89421912032E9F3293010F02E3071
:101CA000C8F32B3241F02D3239F4689404C00E94FD
:101CB0007D0E820F911D219120532A30C0F31EF416
:101CC000909581959F4F0895FB01DC0102C0019022
:101CD0000D9241505040D8F70895FB01DC018D91E1
:101CE000019080190110D9F3990B0895FB01DC01D3
:101CF00001900D920020E1F708957AE0979F902DD2
:101D0000879F802D910D112408952F923F924F921D
:101D10005F926F927F928F929F92AF92BF92CF927B
:101D2000DF92EF92FF920F931F93CF93DF93CDB784
:101D3000DEB7CA1BDB0B0FB6F894DEBF0FBECDBFFC
:101D400009942A88398848885F846E847D848C84CD
:101D50009B84AA84B984C884DF80EE80FD800C81D6
:101D60001B81AA81B981CE0FD11D0FB6F894DEBFB9
:101D70000FBECDBFED01089510E0C6ECD0E004C069
:101D8000FE010E94510C2296C83CD107C9F7F89475
:021D9000FFCF83
:101D92000000AD028000011400F4015802840364C3
:101DA20000B80B000032002C01FF00FF00017B2273
:101DB20073656E736F72223A7B2200227D7D007BF7
:101DC200227661726961626C65223A7B22006375D8
:101DD2007272656E74006300636C6F006F706500F1
:101DE20073746F00730073707500737064006D63B9
:101DF20075006D63640067007B226172645F7365C6
:101E02007474696E6773223A7B22737065656455D8
:101E120070223A2200222C227370656564446F7727
:101E22006E223A2200222C226D617843757272650D
:101E32006E745570223A2200222C226D617843750D
:101E42007272656E74446F776E223A22000000004F
:101E520000F2055E0774058D057F05D0050D0A00A9
:0E1E62006E616E00696E66006F7666002E007F
:00000001FF
