:100000000C9463000C948B000C948B000C948B006C
:100010000C948B000C948B000C948B000C948B0034
:100020000C948B000C948B000C948B000C948B0024
:100030000C948B000C948B000C948B000C948B0014
:100040000C94A5080C948B000C9415090C94EF08E3
:100050000C948B000C948B000C948B000C948B00F4
:100060000C948B000C948B000000000024002700EF
:100070002A0000000000250028002B0000000000DE
:1000800023002600290004040404040404040202DA
:100090000202020203030303030301020408102007
:1000A0004080010204081020010204081020000012
:1000B0000008000201000003040700000000000027
:1000C00000004709610A11241FBECFEFD8E0DEBF50
:1000D000CDBF22E0A4EBB1E001C01D92A338B2076E
:1000E000E1F711E0A0E0B1E0E8E6FAE102C0059036
:1000F0000D92A43BB107D9F710E0C2E6D0E004C0EE
:100100002197FE010E940C0BC136D107C9F70E944E
:1001100079090C94270D0C94000080E480937C00F6
:1001200080917A00806480937A0080917A0086FDC5
:10013000FCCF809178002091790090E0922B089577
:10014000833081F028F4813099F08230A1F0089555
:100150008730A9F08830B9F08430D1F480918000E4
:100160008F7D03C0809180008F77809380000895F9
:1001700084B58F7702C084B58F7D84BD089580914A
:10018000B0008F7703C08091B0008F7D8093B00066
:100190000895CF93DF93282F30E0F901E255FF4F08
:1001A0008491F901E656FF4FD491F901EA57FF4FC8
:1001B000C491CC2391F081110E94A000EC2FF0E0BB
:1001C000EE0FFF1FE458FF4FA591B491EC91ED2382
:1001D00081E090E021F480E002C080E090E0DF91D7
:1001E000CF9108951F93CF93DF93282F30E0F9012B
:1001F000E255FF4F8491F901E656FF4FD491F90182
:10020000EA57FF4FC491CC23C9F0162F81110E94E9
:10021000A000EC2FF0E0EE0FFF1FEE58FF4FA5916E
:10022000B4918FB7F894111105C09C91ED2FE09512
:10023000E92302C0EC91ED2BEC938FBFDF91CF91BE
:100240001F910895CF93DF9390E0FC01E656FF4F96
:100250002491FC01EA57FF4F8491882361F190E0DB
:10026000880F991FFC01E859FF4FC591D491FC01FB
:10027000EE58FF4FA591B491611109C09FB7F89452
:100280008881209582238883EC912E230BC06230D5
:1002900061F49FB7F8943881822F809583238883F7
:1002A000EC912E2B2C939FBF06C08FB7F894E8815A
:1002B0002E2B28838FBFDF91CF910895CF93DF93AB
:1002C000EC0161E085E00E942201209711F460E0DA
:1002D00004C0CF3FD10531F461E085E0DF91CF91DB
:1002E0000C94F200E3EBF0E0E491E330F9F048F431
:1002F000E130B9F0E230A1F584B5806284BDC8BDBB
:1003000034C0E730E9F0E83019F1E43049F5809184
:100310008000806280938000D0938B00C0938A001D
:1003200024C084B5806884BDC7BD1FC08091800093
:10033000806880938000D0938900C093880015C0A6
:100340008091B00080688093B000C093B3000DC06E
:100350008091B00080628093B000C093B40005C06B
:10036000C038D1050CF0B8CFB2CFDF91CF9108954E
:100370003FB7F8948091D8019091D901A091DA010A
:10038000B091DB0126B5A89B05C02F3F19F001965F
:10039000A11DB11D3FBFBA2FA92F982F8827820F0B
:1003A000911DA11DB11DBC01CD0142E0660F771F5B
:1003B000881F991F4A95D1F708958F929F92AF9207
:1003C000BF92CF92DF92EF92FF926B017C010E946D
:1003D000B8014B015C01C114D104E104F104F1F056
:1003E0000E94B801DC01CB0188199909AA09BB094F
:1003F000883E9340A105B10570F321E0C21AD108EF
:10040000E108F10888EE880E83E0981EA11CB11C5B
:10041000C114D104E104F10419F7DDCFFF90EF908E
:10042000DF90CF90BF90AF909F908F9008952FB79F
:10043000F8946091D4017091D5018091D60190918A
:10044000D7012FBF0895CF92DF92EF92FF920F93C3
:100450001F93CF93DF936C017A018B01C0E0D0E052
:10046000CE15DF0589F0D8016D918D01D601ED9192
:10047000FC910190F081E02DC6010995892B11F4C2
:100480007E0102C02196ECCFC701DF91CF911F9171
:100490000F91FF90EF90DF90CF900895089580E046
:1004A00090E00895FC01538D448D252F30E0842F7A
:1004B00090E0821B930B541710F0CF96089501978C
:1004C0000895FC01918D828D981761F0828DDF0176
:1004D000A80FB11D5D968C91928D9F5F9F73928F37
:1004E00090E008958FEF9FEF0895FC01918D828D2C
:1004F000981731F0828DE80FF11D858D90E00895F9
:100500008FEF9FEF0895FC01918D228D892F90E050
:10051000805C9F4F821B91098F73992708958CED02
:1005200091E00E94830221E0892B09F420E0822FD0
:100530000895FC01848DDF01A80FB11DA35ABF4FA0
:100540002C91848D90E001968F739927848FA689D2
:10055000B7892C93A089B1898C9180648C93938DF9
:10056000848D981306C00288F389E02D80818F7DE9
:1005700080830895EF92FF920F931F93CF93DF93A1
:10058000EC0181E0888F9B8D8C8D981305C0E889E4
:10059000F989808185FD24C0F62E0B8D10E00F5F58
:1005A0001F4F0F731127E02E8C8DE8120CC00FB671
:1005B00007FCFACFE889F989808185FFF5CFCE0164
:1005C0000E949902F1CF8B8DFE01E80FF11DE35AD5
:1005D000FF4FF0820B8FEA89FB898081806207C020
:1005E000EE89FF896083E889F9898081806480834E
:1005F00081E090E0DF91CF911F910F91FF90EF90FC
:100600000895CF93DF93EC01888D8823C9F0EA89A0
:10061000FB89808185FD05C0A889B9898C9186FDFB
:100620000FC00FB607FCF5CF808185FFF2CFA889F8
:10063000B9898C9185FFEDCFCE010E949902E7CF59
:10064000DF91CF91089580E090E0892B29F00E94FE
:100650008F0281110C9400000895CF92DF92EF92E7
:10066000FF920F931F930E9417020091C2011091F5
:10067000C3012091C4013091C5016B017C01C01AF6
:10068000D10AE20AF30A4DE2C41641E0D406E104BD
:10069000F10420F16093C2017093C3018093C401FF
:1006A0009093C5018091C0019091C101892B39F4CB
:1006B00081E090E09093C1018093C00104C010924A
:1006C000C1011092C0016091C0018DE01F910F9196
:1006D000FF90EF90DF90CF900C94F2001F910F915C
:1006E000FF90EF90DF90CF90089561E084E00E944A
:1006F000F20061E082E00E94F20081E090E09093DD
:10070000CA018093C901089580E090E00E945E01D3
:1007100060E087E00E94F20060E086E00E94F20064
:1007200060E08DE00E94F20081E090E09093BF01D4
:100730008093BE011092BD011092BC0108950097F4
:1007400069F0FC0101900020E9F73197AF01481BE7
:10075000590BBC018CED91E00C94230280E090E0F9
:1007600008958F929F92AF92BF92CF92DF92EF92B5
:10077000FF920F931F93CF93DF93CDB7DEB7A1976F
:100780000FB6F894DEBF0FBECDBF6C01990FEE0817
:10079000FF08F7FE31C0E091DC01F091DD0101902E
:1007A000F081E02D6DE28CED91E009958C0122271E
:1007B0003327A9012C193D094E095F0919A2CE0161
:1007C00081967C019AE0892E912CA12CB12CCA0132
:1007D000B901A50194010E94D60A605DF7016293F8
:1007E0007F01211531054105510589F7CF010E948F
:1007F0009F03800F911F1DC0A701960119A28E01B2
:100800000F5D1F4F8AE0C82ED12CE12CF12CCA01BC
:10081000B901A70196010E94D60A605DF8016293B2
:100820008F01211531054105510589F7CF010E943E
:100830009F03A1960FB6F894DEBF0FBECDBFDF9128
:10084000CF911F910F91FF90EF90DF90CF90BF90CD
:10085000AF909F908F900895CF92DF92EF92FF928A
:100860000F931F93CF93DF93EC018B010E9417022C
:10087000C090B401D090B501E090B601F090B701FE
:100880009B01AC012C193D094E095F0969017A01F0
:1008900033E3C316D104E104F10458F16093B401C9
:1008A0007093B5018093B6019093B70181E291E016
:1008B0000E949F034C815D81688179818CED91E07C
:1008C0000E94230280E891E00E949F03C8010E94D9
:1008D000B1038EE291E00E949F0382E391E0DF91F9
:1008E000CF911F910F91FF90EF90DF90CF900C94DC
:1008F0009F03DF91CF911F910F91FF90EF90DF90B9
:10090000CF9008950E94090DFC0124813581232B8D
:1009100031F421E061157105A1F0FB0108C0FC0173
:10092000808191816115710531F421E0FC018081A4
:10093000882339F005C00E94170D21E0892B09F0AA
:1009400020E0822F0895FC01808191810C94A70BF7
:100950000F931F93CF93DF93EC01888199810097C8
:1009600029F02A813B812617370788F48B016F5FB6
:100970007F4F0E943F0C009761F0998388831B830F
:100980000A832C813D81232B11F4FC01108281E02C
:1009900001C080E0DF91CF911F910F910895EF92F8
:1009A000FF920F931F93CF93DF93EC017B018A019A
:1009B000BA010E94A8042881398181110DC0211536
:1009C000310519F0C9010E94A70B198218821D82F6
:1009D0001C821B821A8206C01D830C83B701C901C9
:1009E0000E94200DCE01DF91CF911F910F91FF90BA
:1009F000EF900895CF93DF93EC016115710559F0E5
:100A0000FB0101900020E9F73197AF01461B570B1E
:100A10000E94CF040CC088819981009711F00E9438
:100A2000A70B198218821D821C821B821A82CE019A
:100A3000DF91CF910895FC011182108213821282FE
:100A4000158214826115710551F0FB01019000209F
:100A5000E9F73197AF01461B570B0C94CF0408956B
:100A6000BF92CF92DF92EF92FF920F931F93CF939B
:100A7000DF937C016B018A01E9012417350720F41B
:100A8000812F8901C42FD82F64E371E0C7010E9430
:100A90001B05D60114968D919C911597081719077F
:100AA000D0F48C179D0708F4EC01D601ED91FC9170
:100AB0001197EC0FFD1FB08010824D915C91BA012F
:100AC000600F711FC7010E94FA04D601ED91FC91DD
:100AD000EC0FFD1FB082C701DF91CF911F910F91E5
:100AE000FF90EF90DF90CF90BF900895FF920F930B
:100AF0001F93CF93DF93CDB7DEB768970FB6F89407
:100B0000DEBF0FBECDBFFF24F3948CED91E00E94B9
:100B10008302181619060CF04AC18CED91E00E9470
:100B20008302181619068CF78CED91E00E94610281
:100B30008D3719F4F092C8012BC08B3739F464E378
:100B400071E089E792E00E94FA0422C089831A8248
:100B500000917D0210917E020F5F1F4FB80189E75F
:100B600092E00E94A804882399F0209179023091A4
:100B70007A0280917D0290917E02BE016F5F7F4F6D
:100B8000820F931F0E94200D10937E0200937D021E
:100B90008091C801882309F4B8CF1C8A1B8A1E8A59
:100BA0001D8A188E1F8A6091790270917A026115F0
:100BB000710541F040917D0250917E02CE01439635
:100BC0000E94CF0421E030E040E050E0BE016D5EC5
:100BD0007F4FCE010D960E94300525E030E042E0C7
:100BE00050E0BE016D5E7F4FCE0107960E9430053A
:100BF0002AE030E046E050E0BE016D5E7F4FCE015E
:100C000001960E94300565E371E0CE010D960E94C9
:100C10008404882349F167E371E0CE0107960E94BE
:100C20008404882319F00E94C207A4C06BE371E01A
:100C3000CE0107960E948404882319F00E94E306DF
:100C400099C06FE371E0CE0107960E948404882367
:100C500009F490C08091C6019091C701019709F0F5
:100C600089C00E94840386C063E471E0CE010D96C2
:100C70000E948404882309F445C065E471E0CE0134
:100C800007960E948404882349F089819A810E94F2
:100C9000650A90930701809306016CC069E471E0D6
:100CA000CE0107960E948404882349F089819A81A5
:100CB0000E94650A90930501809304015BC06DE476
:100CC00071E0CE0107960E948404882349F089814F
:100CD0009A810E94650A90930301809302014AC0A1
:100CE00061E571E0CE0107960E948404882309F42F
:100CF00041C089819A810E94650A90930101809385
:100D0000000138C065E571E0CE010D960E948404B3
:100D1000882381F187E591E00E949F03809106017D
:100D2000909107010E94B10384E791E00E949F0324
:100D300080910401909105010E94B10384E891E043
:100D40000E949F0380910201909103010E94B103D0
:100D500087E991E00E949F03809100019091010139
:100D60000E94B1038EE291E00E949F0382E391E032
:100D70000E949F03CE0101960E94A304CE01079614
:100D80000E94A304CE010D960E94A304CE014396B7
:100D90000E94A3048CED91E00E94010364E371E0E2
:100DA00089E792E00E94FA041092C801AECE6896DC
:100DB0000FB6F894DEBF0FBECDBFDF91CF911F916C
:100DC0000F91FF900895AF92BF92CF92DF92EF9272
:100DD000FF920F931F93CF93DF9300D000D000D0EA
:100DE000CDB7DEB78091C9019091CA01892B41F43A
:100DF0000E94750364E670E080E090E00E94DD01EF
:100E00008CE00E94C900892B09F03DC010920801B6
:100E1000C0900601D0900701C60164E170E00E9415
:100E2000C20A5B0161E087E00E94F20060E086E0B8
:100E30000E94F20004E110E0E12CF12C0E942D034D
:100E4000C7010E945E01EA0CFB1C69E170E080E0D2
:100E500090E00E94DD010150110981F7C6010E9456
:100E60005E0161E087E00E94F20060E086E00E949F
:100E7000F20081E090E09093C7018093C601109248
:100E8000BF011092BE01EE24EA9483E0F82E8CE0BC
:100E90000E94C900892B09F045C062E370E080E040
:100EA00090E00E94DD010E948D008701081B190B54
:100EB0001093BD010093BC0183E00E94C900909390
:100EC000BB018093BA0180910201909103018017C8
:100ED000910714F40E9484038091BA019091BB01A0
:100EE000892B11F40E9484030091BC011091BD0173
:100EF0006CEA71E0CE0101960E941B05B801CE019B
:100F000001960E942C04CE0101960E94A3040E9427
:100F100076050E942D038091BE019091BF0101973B
:100F200009F0B5CF8091BE019091BF01892B61F48A
:100F30000E94840360E08DE00E94F20082E090E075
:100F40009093C7018093C60181E0809308010E94BD
:100F500017026093CB017093CC018093CD019093E5
:100F6000CE0126960FB6F894DEBF0FBECDBFDF913F
:100F7000CF911F910F91FF90EF90DF90CF90BF9096
:100F8000AF900895AF92BF92CF92DF92EF92FF920F
:100F90000F931F93CF93DF9300D000D000D0CDB735
:100FA000DEB78091C9019091CA01892B41F40E945A
:100FB000750364E670E080E090E00E94DD0188E067
:100FC0000E94C9009093B9018093B801892B09F060
:100FD00087C010920801C0900401D0900501C6019D
:100FE00064E170E00E94C20A5B0160E087E00E9459
:100FF000F20061E086E00E94F20004E110E0E12CE2
:10100000F12C0E942D03C7010E945E01EA0CFB1C1B
:1010100069E170E080E090E00E94DD01015011097B
:1010200081F7C6010E945E0160E087E00E94F20045
:1010300061E086E00E94F20081E090E09093C701B9
:101040008093C6011092BF011092BE0149C062E3B5
:1010500070E080E090E00E94DD010E948D008C0134
:101060009093BD018093BC0183E00E94C9009093DE
:10107000BB018093BA01809100019091010180171A
:10108000910714F40E9484038091BA019091BB01EE
:10109000892B11F40E9484030091BC011091BD01C1
:1010A0006CEA71E0CE0101960E941B05B801CE01E9
:1010B00001960E942C04CE0101960E94A3040E9476
:1010C00076050E942D038091BE019091BF0101978A
:1010D00071F088E00E94C9009093B9018093B80133
:1010E0008091B8019091B901892B09F4B0CF80911A
:1010F000BE019091BF01892B51F40E94840360E0EE
:101100008DE00E94F2001092C7011092C60181E0AA
:10111000809308010E9417026093CB017093CC0169
:101120008093CD019093CE0126960FB6F894DEBF42
:101130000FBECDBFDF91CF911F910F91FF90EF9028
:10114000DF90CF90BF90AF9008951F920F920FB68F
:101150000F9211242F933F938F939F93AF93BF933D
:101160008091D4019091D501A091D601B091D70181
:101170003091D30123E0230F2D3720F40196A11DD8
:10118000B11D05C026E8230F0296A11DB11D2093B5
:10119000D3018093D4019093D501A093D601B0934D
:1011A000D7018091D8019091D901A091DA01B09135
:1011B000DB010196A11DB11D8093D8019093D90147
:1011C000A093DA01B093DB01BF91AF919F918F9112
:1011D0003F912F910F900FBE0F901F9018951F9267
:1011E0000F920FB60F9211242F933F934F935F935B
:1011F0006F937F938F939F93AF93BF93EF93FF93DF
:101200008CED91E00E949902FF91EF91BF91AF9117
:101210009F918F917F916F915F914F913F912F910E
:101220000F900FBE0F901F9018951F920F920FB640
:101230000F9211242F938F939F93EF93FF93E0913D
:10124000EC01F091ED018081E091F201F091F30168
:1012500082FD12C090818091F5018F5F8F73209184
:10126000F601821751F0E091F501F0E0E452FE4FF3
:10127000958F8093F50101C08081FF91EF919F913F
:101280008F912F910F900FBE0F901F901895ECED3E
:10129000F1E01382128288EE93E0A0E0B0E0848354
:1012A0009583A683B78383E191E09183808385EC66
:1012B00090E09587848784EC90E09787868780EC20
:1012C00090E0918B808B81EC90E0938B828B82EC11
:1012D00090E0958B848B86EC90E0978B868B118EBB
:1012E000128E138E148E64E371E089E792E00C9401
:1012F0001B05789484B5826084BD84B5816084BD0B
:1013000085B5826085BD85B5816085BD80916E00A3
:10131000816080936E0010928100809181008260D4
:101320008093810080918100816080938100809111
:1013300080008160809380008091B1008460809300
:10134000B1008091B00081608093B00080917A00FC
:10135000846080937A0080917A00826080937A0022
:1013600080917A00816080937A0080917A00806811
:1013700080937A001092C10060E088E00E94220110
:1013800060E08CE00E94220161E08DE00E94220179
:1013900061E087E00E94220161E086E00E94220174
:1013A00060E089E00E94220160E08AE00E94220160
:1013B00062E083E00E94220161E084E00E94220159
:1013C00061E082E00E94220160E084E00E94F2007D
:1013D00060E082E00E94F200E091EC01F091ED010A
:1013E00082E08083E091E801F091E9011082E091D0
:1013F000EA01F091EB018FEC80831092F401E0910F
:10140000F001F091F10186E08083E091EE01F0912E
:10141000EF01808180618083E091EE01F091EF0126
:10142000808188608083E091EE01F091EF018081FE
:1014300080688083E091EE01F091EF0180818F7DE3
:1014400080830E9476050E941702209108012223C2
:10145000F9F00091CB011091CC012091CD01309198
:10146000CE01DC01CB01801B910BA20BB30B893B9E
:101470009B40A105B10560F060E084E00E94F200AD
:1014800060E082E00E94F2001092CA011092C9014D
:1014900089E00E94C9009093D2018093D101019705
:1014A00011F40E94E3068AE00E94C9009093D001E3
:1014B0008093CF01019711F40E94C2070E94230379
:1014C000C0CF89E792E00C94A304FC0188279927F8
:1014D000E89421912032E9F3293010F02E30C8F33E
:1014E0002B3241F02D3239F4689404C00E94830AF3
:1014F000820F911D219120532A30C0F31EF4909544
:1015000081959F4F08957AE0979F902D879F802D1A
:10151000910D112408952F923F924F925F926F92F6
:101520007F928F929F92AF92BF92CF92DF92EF9273
:10153000FF920F931F93CF93DF93CDB7DEB7CA1BF4
:10154000DB0B0FB6F894DEBF0FBECDBF09942A881F
:10155000398848885F846E847D848C849B84AA84C7
:10156000B984C884DF80EE80FD800C811B81AA8154
:10157000B981CE0FD11D0FB6F894DEBF0FBECDBF1F
:10158000ED01089597FB072E16F4009407D077FD20
:1015900009D00E94F80A07FC05D03EF49095819589
:1015A0009F4F0895709561957F4F0895A1E21A2E7F
:1015B000AA1BBB1BFD010DC0AA1FBB1FEE1FFF1FF7
:1015C000A217B307E407F50720F0A21BB30BE40B47
:1015D000F50B661F771F881F991F1A9469F760958E
:1015E0007095809590959B01AC01BD01CF01089548
:1015F000AA1BBB1B51E107C0AA1FBB1FA617B70739
:1016000010F0A61BB70B881F991F5A95A9F7809554
:101610009095BC01CD010895EE0FFF1F0590F49148
:10162000E02D0994CF93DF938230910510F482E08E
:1016300090E0E0918102F091820220E030E0C0E091
:10164000D0E0309711F14081518148175907C0F01F
:101650004817590761F482819381209719F09B8381
:101660008A832BC0909382028093810226C0211529
:10167000310519F04217530718F49A01BE01DF0132
:10168000EF010280F381E02DDCCF2115310509F156
:10169000281B390B2430310590F412968D919C91C2
:1016A00013976115710521F0FB019383828304C0B8
:1016B0009093820280938102FD01329644C0FD0125
:1016C000E20FF31F81939193225031092D933C93A4
:1016D0003AC020917F0230918002232B41F4209167
:1016E0000B0130910C013093800220937F022091F6
:1016F000090130910A012115310541F42DB73EB79A
:1017000040910D0150910E01241B350BE0917F0299
:10171000F0918002E217F307A0F42E1B3F0B28176D
:10172000390778F0AC014E5F5F4F2417350748F05A
:101730004E0F5F1F5093800240937F0281939193DD
:1017400002C0E0E0F0E0CF01DF91CF9108950F9368
:101750001F93CF93DF93009709F48CC0FC0132975D
:1017600013821282009181021091820201151105EB
:1017700081F420813181820F931F20917F0230916B
:1017800080022817390779F5F0938002E0937F02F1
:1017900071C0D80140E050E0AE17BF0750F4129678
:1017A0002D913C911397AD012115310509F1D90116
:1017B000F3CF9D01DA013383228360817181860F2B
:1017C000971F8217930769F4EC0128813981260F4E
:1017D000371F2E5F3F4F318320838A819B81938304
:1017E0008283452B29F4F0938202E093810242C068
:1017F0001396FC93EE931297ED01499159919E0136
:10180000240F351FE217F30771F480819181840F53
:10181000951F029611969C938E93828193811396C5
:101820009C938E931297E0E0F0E0D80112968D9190
:101830009C911397009719F0F8018C01F6CF8D91C8
:101840009C9198012E5F3F4F820F931F20917F0242
:10185000309180022817390769F4309729F41092E3
:1018600082021092810202C01382128210938002BF
:1018700000937F02DF91CF911F910F910895A0E017
:10188000B0E0E5E4FCE00C948F0AEC01009721F451
:10189000CB010E94120BB8C0FC01E60FF71F9C01A0
:1018A00022503109E217F30708F4ACC0D9010D91B9
:1018B0001C91119706171707B0F00530110508F4B1
:1018C0009FC0C80104978617970708F499C0025073
:1018D0001109061B170B019311936D937C93CF0194
:1018E0000E94A70B8DC05B01A01AB10A4C01800EAB
:1018F000911EA0918102B091820240E050E0E12C63
:10190000F12C109709F44AC0A815B905D1F56D90CE
:101910007C901197630182E0C80ED11CCA14DB04CD
:1019200080F1A3014A195B096A0182E0C80ED11C4B
:101930001296BC9012971396AC91B5E0CB16D104D9
:1019400040F0B282A38351834083D9016D937C938D
:101950000AC00E5F1F4FC301800F911FF9019183D1
:101960008083EB2DFA2FE114F10431F0D7011396A7
:10197000FC93EE93129744C0F0938202E0938102AD
:101980003FC08D919C9111974817590708F4AC01FD
:101990007D0112960D90BC91A02DB3CF80917F0256
:1019A0009091800288159905E1F446175707C8F40D
:1019B0008091090190910A01009741F48DB79EB77B
:1019C00040910D0150910E01841B950BE817F9070A
:1019D000C8F4F0938002E0937F02F9017183608381
:1019E0000FC0CB010E94120B7C01009759F0A80197
:1019F000BE010E940E0DCE010E94A70BC70104C0BC
:101A0000CE0102C080E090E0CDB7DEB7EEE00C94EE
:101A1000AB0A81E090E0F8940C94270DFB01DC0107
:101A200002C001900D9241505040D8F70895FB013B
:101A3000DC018D91019080190110D9F3990B089563
:101A4000FB01DC0101900D920020E1F7089510E008
:101A5000C2E6D0E004C0FE010E940C0B2196C33602
:081A6000D107C9F7F894FFCF8C
:101A680058028403FF00FF00010000830280000089
:101A7800000000BA022302520201038302610275C8
:101A8800027B2273656E736F72223A7B2200227D7D
:101A98007D000D0A006300636C6F006F7065007352
:101AA800746F00730073707500737064006D6375F4
:101AB800006D63640067007B226172645F73657404
:101AC80074696E6773223A7B22737065656455701A
:101AD800223A2200222C227370656564446F776E67
:101AE800223A2200222C226D617843757272656E4B
:101AF800745570223A2200222C226D617843757247
:101B080072656E74446F776E223A22006375727242
:041B1800656E740082
:00000001FF
